{
  "contractName": "MultiSig",
  "abi": [
    {
      "constant": true,
      "inputs": [
        {
          "name": "",
          "type": "address"
        }
      ],
      "name": "validOwners",
      "outputs": [
        {
          "name": "",
          "type": "bool"
        }
      ],
      "payable": false,
      "stateMutability": "view",
      "type": "function"
    },
    {
      "constant": true,
      "inputs": [
        {
          "name": "",
          "type": "uint256"
        }
      ],
      "name": "owners",
      "outputs": [
        {
          "name": "",
          "type": "address"
        }
      ],
      "payable": false,
      "stateMutability": "view",
      "type": "function"
    },
    {
      "constant": true,
      "inputs": [
        {
          "name": "",
          "type": "uint256"
        },
        {
          "name": "",
          "type": "address"
        }
      ],
      "name": "confirmations",
      "outputs": [
        {
          "name": "",
          "type": "bool"
        }
      ],
      "payable": false,
      "stateMutability": "view",
      "type": "function"
    },
    {
      "constant": true,
      "inputs": [
        {
          "name": "",
          "type": "uint256"
        }
      ],
      "name": "transactions",
      "outputs": [
        {
          "name": "destination",
          "type": "address"
        },
        {
          "name": "amount",
          "type": "uint256"
        },
        {
          "name": "isExecuted",
          "type": "bool"
        },
        {
          "name": "data",
          "type": "bytes"
        }
      ],
      "payable": false,
      "stateMutability": "view",
      "type": "function"
    },
    {
      "constant": true,
      "inputs": [],
      "name": "transactionCount",
      "outputs": [
        {
          "name": "",
          "type": "uint256"
        }
      ],
      "payable": false,
      "stateMutability": "view",
      "type": "function"
    },
    {
      "constant": true,
      "inputs": [],
      "name": "required",
      "outputs": [
        {
          "name": "",
          "type": "uint256"
        }
      ],
      "payable": false,
      "stateMutability": "view",
      "type": "function"
    },
    {
      "inputs": [
        {
          "name": "_owners",
          "type": "address[]"
        },
        {
          "name": "_required",
          "type": "uint256"
        }
      ],
      "payable": false,
      "stateMutability": "nonpayable",
      "type": "constructor"
    },
    {
      "payable": true,
      "stateMutability": "payable",
      "type": "fallback"
    },
    {
      "constant": false,
      "inputs": [
        {
          "name": "_transactionId",
          "type": "uint256"
        }
      ],
      "name": "confirmTransaction",
      "outputs": [],
      "payable": false,
      "stateMutability": "nonpayable",
      "type": "function"
    },
    {
      "constant": true,
      "inputs": [
        {
          "name": "_transactionId",
          "type": "uint256"
        }
      ],
      "name": "getConfirmations",
      "outputs": [
        {
          "name": "",
          "type": "address[]"
        }
      ],
      "payable": false,
      "stateMutability": "view",
      "type": "function"
    },
    {
      "constant": false,
      "inputs": [
        {
          "name": "_destination",
          "type": "address"
        },
        {
          "name": "_amount",
          "type": "uint256"
        },
        {
          "name": "_data",
          "type": "bytes"
        }
      ],
      "name": "submitTransaction",
      "outputs": [],
      "payable": false,
      "stateMutability": "nonpayable",
      "type": "function"
    },
    {
      "constant": true,
      "inputs": [
        {
          "name": "_transactionId",
          "type": "uint256"
        }
      ],
      "name": "isConfirmed",
      "outputs": [
        {
          "name": "",
          "type": "bool"
        }
      ],
      "payable": false,
      "stateMutability": "view",
      "type": "function"
    },
    {
      "constant": false,
      "inputs": [
        {
          "name": "_transactionId",
          "type": "uint256"
        }
      ],
      "name": "executeTransaction",
      "outputs": [],
      "payable": false,
      "stateMutability": "nonpayable",
      "type": "function"
    },
    {
      "constant": true,
      "inputs": [
        {
          "name": "_executed",
          "type": "bool"
        },
        {
          "name": "_pending",
          "type": "bool"
        }
      ],
      "name": "getTransactionCount",
      "outputs": [
        {
          "name": "",
          "type": "uint256"
        }
      ],
      "payable": false,
      "stateMutability": "view",
      "type": "function"
    },
    {
      "constant": true,
      "inputs": [
        {
          "name": "_pending",
          "type": "bool"
        },
        {
          "name": "_executed",
          "type": "bool"
        }
      ],
      "name": "getTransactionIds",
      "outputs": [
        {
          "name": "",
          "type": "uint256[]"
        }
      ],
      "payable": false,
      "stateMutability": "view",
      "type": "function"
    },
    {
      "constant": true,
      "inputs": [],
      "name": "getOwners",
      "outputs": [
        {
          "name": "",
          "type": "address[]"
        }
      ],
      "payable": false,
      "stateMutability": "view",
      "type": "function"
    }
  ],
  "bytecode": "0x60806040523480156200001157600080fd5b506040516200156038038062001560833981018060405281019080805182019291906020018051906020019092919050505060008083511115156200005557600080fd5b6000821115156200006557600080fd5b825182111515156200007657600080fd5b82600090805190602001906200008e9291906200012b565b50600090505b82518110156200011b5760018060008584815181101515620000b257fe5b9060200190602002015173ffffffffffffffffffffffffffffffffffffffff1673ffffffffffffffffffffffffffffffffffffffff16815260200190815260200160002060006101000a81548160ff021916908315150217905550808060010191505062000094565b8160028190555050505062000200565b828054828255906000526020600020908101928215620001a7579160200282015b82811115620001a65782518260006101000a81548173ffffffffffffffffffffffffffffffffffffffff021916908373ffffffffffffffffffffffffffffffffffffffff160217905550916020019190600101906200014c565b5b509050620001b69190620001ba565b5090565b620001fd91905b80821115620001f957600081816101000a81549073ffffffffffffffffffffffffffffffffffffffff021916905550600101620001c1565b5090565b90565b61135080620002106000396000f3006080604052600436106100d0576000357c0100000000000000000000000000000000000000000000000000000000900463ffffffff1680630210ef84146100d2578063025e7c271461012d5780633411c81c1461019a57806354741525146101ff578063784547a71461024e5780639ace38c2146102935780639de5dcd61461037e578063a0e67e2b1461040e578063b5dc40c31461047a578063b77bf600146104fc578063c01a8c8414610527578063c642747414610554578063dc8452cd146105e7578063ee22610b14610612575b005b3480156100de57600080fd5b50610113600480360381019080803573ffffffffffffffffffffffffffffffffffffffff16906020019092919050505061063f565b604051808215151515815260200191505060405180910390f35b34801561013957600080fd5b506101586004803603810190808035906020019092919050505061065f565b604051808273ffffffffffffffffffffffffffffffffffffffff1673ffffffffffffffffffffffffffffffffffffffff16815260200191505060405180910390f35b3480156101a657600080fd5b506101e560048036038101908080359060200190929190803573ffffffffffffffffffffffffffffffffffffffff16906020019092919050505061069d565b604051808215151515815260200191505060405180910390f35b34801561020b57600080fd5b506102386004803603810190808035151590602001909291908035151590602001909291905050506106cc565b6040518082815260200191505060405180910390f35b34801561025a57600080fd5b5061027960048036038101908080359060200190929190505050610777565b604051808215151515815260200191505060405180910390f35b34801561029f57600080fd5b506102be60048036038101908080359060200190929190505050610795565b604051808573ffffffffffffffffffffffffffffffffffffffff1673ffffffffffffffffffffffffffffffffffffffff1681526020018481526020018315151515815260200180602001828103825283818151815260200191508051906020019080838360005b83811015610340578082015181840152602081019050610325565b50505050905090810190601f16801561036d5780820380516001836020036101000a031916815260200191505b509550505050505060405180910390f35b34801561038a57600080fd5b506103b760048036038101908080351515906020019092919080351515906020019092919050505061088a565b6040518080602001828103825283818151815260200191508051906020019060200280838360005b838110156103fa5780820151818401526020810190506103df565b505050509050019250505060405180910390f35b34801561041a57600080fd5b50610423610a4c565b6040518080602001828103825283818151815260200191508051906020019060200280838360005b8381101561046657808201518184015260208101905061044b565b505050509050019250505060405180910390f35b34801561048657600080fd5b506104a560048036038101908080359060200190929190505050610b32565b6040518080602001828103825283818151815260200191508051906020019060200280838360005b838110156104e85780820151818401526020810190506104cd565b505050509050019250505060405180910390f35b34801561050857600080fd5b50610511610d8d565b6040518082815260200191505060405180910390f35b34801561053357600080fd5b5061055260048036038101908080359060200190929190505050610d93565b005b34801561056057600080fd5b506105e5600480360381019080803573ffffffffffffffffffffffffffffffffffffffff16906020019092919080359060200190929190803590602001908201803590602001908080601f0160208091040260200160405190810160405280939291908181526020018383808284378201915050505050509192919290505050610f58565b005b3480156105f357600080fd5b506105fc610f76565b6040518082815260200191505060405180910390f35b34801561061e57600080fd5b5061063d60048036038101908080359060200190929190505050610f7c565b005b60016020528060005260406000206000915054906101000a900460ff1681565b60008181548110151561066e57fe5b906000526020600020016000915054906101000a900473ffffffffffffffffffffffffffffffffffffffff1681565b60056020528160005260406000206020528060005260406000206000915091509054906101000a900460ff1681565b6000806000809150600090505b60035481101561076c576004600082815260200190815260200160002060020160009054906101000a900460ff1680156107105750845b1561072257818060010192505061075f565b6004600082815260200190815260200160002060020160009054906101000a900460ff161580156107505750835b1561075e5781806001019250505b5b80806001019150506106d9565b819250505092915050565b6000606061078483610b32565b905060025481511015915050919050565b60046020528060005260406000206000915090508060000160009054906101000a900473ffffffffffffffffffffffffffffffffffffffff16908060010154908060020160009054906101000a900460ff1690806003018054600181600116156101000203166002900480601f0160208091040260200160405190810160405280929190818152602001828054600181600116156101000203166002900480156108805780601f1061085557610100808354040283529160200191610880565b820191906000526020600020905b81548152906001019060200180831161086357829003601f168201915b5050505050905084565b6060600080606060008060009450600093505b600354841015610930576004600085815260200190815260200160002060020160009054906101000a900460ff1680156108d45750865b156108e6578480600101955050610923565b6004600085815260200190815260200160002060020160009054906101000a900460ff161580156109145750875b156109225784806001019550505b5b838060010194505061089d565b8460405190808252806020026020018201604052801561095f5781602001602082028038833980820191505090505b50925060009150600090505b600354811015610a3e576004600082815260200190815260200160002060020160009054906101000a900460ff1680156109a25750865b156109d4576001810183838151811015156109b957fe5b90602001906020020181815250508180600101925050610a31565b6004600082815260200190815260200160002060020160009054906101000a900460ff16158015610a025750875b15610a3057600181018383815181101515610a1957fe5b906020019060200201818152505081806001019250505b5b808060010191505061096b565b829550505050505092915050565b60608060008080549050604051908082528060200260200182016040528015610a845781602001602082028038833980820191505090505b509150600090505b600080549050811015610b2a57600081815481101515610aa857fe5b9060005260206000200160009054906101000a900473ffffffffffffffffffffffffffffffffffffffff168282815181101515610ae157fe5b9060200190602002019073ffffffffffffffffffffffffffffffffffffffff16908173ffffffffffffffffffffffffffffffffffffffff16815250508080600101915050610a8c565b819250505090565b6060600080606060008060009450600093505b600080549050841015610c03576005600088815260200190815260200160002060008086815481101515610b7557fe5b9060005260206000200160009054906101000a900473ffffffffffffffffffffffffffffffffffffffff1673ffffffffffffffffffffffffffffffffffffffff1673ffffffffffffffffffffffffffffffffffffffff16815260200190815260200160002060009054906101000a900460ff1615610bf65784806001019550505b8380600101945050610b45565b84604051908082528060200260200182016040528015610c325781602001602082028038833980820191505090505b50925060009150600090505b600080549050811015610d80576005600088815260200190815260200160002060008083815481101515610c6e57fe5b9060005260206000200160009054906101000a900473ffffffffffffffffffffffffffffffffffffffff1673ffffffffffffffffffffffffffffffffffffffff1673ffffffffffffffffffffffffffffffffffffffff16815260200190815260200160002060009054906101000a900460ff1615610d7357600081815481101515610cf557fe5b9060005260206000200160009054906101000a900473ffffffffffffffffffffffffffffffffffffffff168383815181101515610d2e57fe5b9060200190602002019073ffffffffffffffffffffffffffffffffffffffff16908173ffffffffffffffffffffffffffffffffffffffff168152505081806001019250505b8080600101915050610c3e565b8295505050505050919050565b60035481565b60011515600160003373ffffffffffffffffffffffffffffffffffffffff1673ffffffffffffffffffffffffffffffffffffffff16815260200190815260200160002060009054906101000a900460ff161515141515610df257600080fd5b600073ffffffffffffffffffffffffffffffffffffffff166004600083815260200190815260200160002060000160009054906101000a900473ffffffffffffffffffffffffffffffffffffffff1673ffffffffffffffffffffffffffffffffffffffff1614151515610e6457600080fd5b600015156005600083815260200190815260200160002060003373ffffffffffffffffffffffffffffffffffffffff1673ffffffffffffffffffffffffffffffffffffffff16815260200190815260200160002060009054906101000a900460ff161515141515610ed457600080fd5b60016005600083815260200190815260200160002060003373ffffffffffffffffffffffffffffffffffffffff1673ffffffffffffffffffffffffffffffffffffffff16815260200190815260200160002060006101000a81548160ff021916908315150217905550610f4681610777565b15610f5557610f5481610f7c565b5b50565b6000610f658484846110f2565b9050610f7081610d93565b50505050565b60025481565b610f8581610777565b1515610f9057600080fd5b6004600082815260200190815260200160002060020160009054906101000a900460ff16151515610fc057600080fd5b60016004600083815260200190815260200160002060020160006101000a81548160ff0219169083151502179055506004600082815260200190815260200160002060000160009054906101000a900473ffffffffffffffffffffffffffffffffffffffff1673ffffffffffffffffffffffffffffffffffffffff1660046000838152602001908152602001600020600101546004600084815260200190815260200160002060030160405180828054600181600116156101000203166002900480156110ce5780601f106110a3576101008083540402835291602001916110ce565b820191906000526020600020905b8154815290600101906020018083116110b157829003601f168201915b505091505060006040518083038185875af19250505015156110ef57600080fd5b50565b60006110fc61123e565b60008073ffffffffffffffffffffffffffffffffffffffff168673ffffffffffffffffffffffffffffffffffffffff161415151561113957600080fd5b6080604051908101604052808773ffffffffffffffffffffffffffffffffffffffff1681526020018681526020016000151581526020018581525091506003549050816004600083815260200190815260200160002060008201518160000160006101000a81548173ffffffffffffffffffffffffffffffffffffffff021916908373ffffffffffffffffffffffffffffffffffffffff1602179055506020820151816001015560408201518160020160006101000a81548160ff021916908315150217905550606082015181600301908051906020019061121c92919061127f565b5090505060036000815480929190600101919050555080925050509392505050565b608060405190810160405280600073ffffffffffffffffffffffffffffffffffffffff16815260200160008152602001600015158152602001606081525090565b828054600181600116156101000203166002900490600052602060002090601f016020900481019282601f106112c057805160ff19168380011785556112ee565b828001600101855582156112ee579182015b828111156112ed5782518255916020019190600101906112d2565b5b5090506112fb91906112ff565b5090565b61132191905b8082111561131d576000816000905550600101611305565b5090565b905600a165627a7a72305820eee9fba3ce1f32354731bb148e1b80592d40a7443c2fff4ad920eaa7392e38700029",
  "source": "pragma solidity ^0.4.23;\n\ncontract MultiSig {\n  \n  address[] public owners;\n  mapping(address => bool) public validOwners;\n  uint256 public required;\n\n  uint256 public transactionCount;\n  mapping(uint256 => Transaction) public transactions;\n  mapping(uint256 => mapping(address => bool)) public confirmations;\n\n  struct Transaction{\n    address destination;\n    uint256 amount;\n    bool isExecuted;\n    bytes data;\n  }\n\n  constructor(address[] _owners, uint256 _required) public {\n      require(_owners.length > 0);\n      require(_required > 0);\n      require(_required <= _owners.length);\n\n      owners = _owners;\n      for(uint i = 0; i < _owners.length; i++){\n        validOwners[_owners[i]] = true;\n      }\n      required = _required;\n  }\n\n  function addTransaction(address _destination, uint256 _amount, bytes _data) internal returns (uint256){\n    require(_destination != address(0));\n\n    Transaction memory newTransaction = Transaction({\n      destination: _destination,\n      amount: _amount,\n      isExecuted: false,\n      data: _data\n    });\n\n    uint transactionID = transactionCount;\n    transactions[transactionID] = newTransaction;\n    transactionCount ++;\n\n    return transactionID;\n  }\n\n  function confirmTransaction(uint256 _transactionId) public {\n    require(validOwners[msg.sender] == true);\n    require(transactions[_transactionId].destination != address(0));\n    require(confirmations[_transactionId][msg.sender] == false);\n    confirmations[_transactionId][msg.sender] = true;\n\n    if(isConfirmed(_transactionId)){\n      executeTransaction(_transactionId);\n    }\n  }\n\n  function getConfirmations(uint256 _transactionId) public view returns (address[]){\n\n    uint count = 0;\n  \n    for(uint i = 0; i< owners.length; i++){\n      if(confirmations[_transactionId][owners[i]]){\n        count ++;\n      }\n    }\n\n    address[] memory confirmed = new address[](count);\n    uint index = 0;\n\n    for(uint j = 0; j< owners.length; j++){\n      if(confirmations[_transactionId][owners[j]]){\n        confirmed[index] = owners[j];\n        index ++;\n      }\n    }\n    \n    return confirmed;\n  }\n\n  function submitTransaction(address _destination, uint _amount, bytes _data) public {\n    uint256 id = addTransaction(_destination, _amount, _data);\n    confirmTransaction(id);\n  }\n\n  function() public payable {\n\n  }\n\n  function isConfirmed(uint256 _transactionId) public constant returns (bool) {\n    address[] memory confirms = getConfirmations(_transactionId);\n    return (confirms.length >= required);\n  }\n\n  function executeTransaction(uint256 _transactionId) public {\n    require(isConfirmed(_transactionId));\n    require(!transactions[_transactionId].isExecuted);\n    \n    transactions[_transactionId].isExecuted = true;\n    require(transactions[_transactionId].destination.call.value(transactions[_transactionId].amount)(transactions[_transactionId].data));\n  }\n\n  function getTransactionCount(bool _executed, bool _pending) public view returns (uint){\n\n    uint count = 0;\n    for(uint i = 0; i< transactionCount; i++){\n      if(transactions[i].isExecuted && _executed){\n        count++;\n      }else if(!transactions[i].isExecuted && _pending){\n        count++;\n      }\n    }\n\n    return count;\n  }\n\n  function getTransactionIds(bool _pending, bool _executed) public view returns (uint256[]){\n\n    uint count = 0;\n    for(uint i = 0; i< transactionCount; i++){\n      if(transactions[i].isExecuted && _executed){\n        count++;\n      }else if(!transactions[i].isExecuted && _pending){\n        count++;\n      }\n    }\n\n    uint256[] memory ids = new uint256[](count);\n    uint256 index = 0;\n\n    for(uint j = 0; j < transactionCount; j++){\n      if(transactions[j].isExecuted && _executed){\n        ids[index] = j + 1;\n        index++;\n      }else if(!transactions[j].isExecuted && _pending){\n        ids[index] = j + 1;\n        index++;\n      }\n    }\n\n    return ids;\n  }\n\n  function getOwners() public view returns (address[]){\n    address[] memory result = new address[](owners.length);\n    for(uint i = 0; i<owners.length; i++){\n      result[i] = owners[i];\n    }\n    return result;\n  }\n}",
  "sourcePath": "/Users/markomarinovic/Projects/Personal/devcon4/workshop-multisig/contracts/Multisig.sol",
  "compiler": {
    "name": "solc",
    "version": "0.4.24+commit.e67f0147.Emscripten.clang"
  },
  "schemaVersion": "2.0.1",
  "updatedAt": "2018-10-30T17:23:10.418Z"
}