{
  "contractName": "Authorized",
  "abi": [
    {
      "constant": true,
      "inputs": [],
      "name": "owner",
      "outputs": [
        {
          "name": "",
          "type": "address"
        }
      ],
      "payable": false,
      "stateMutability": "view",
      "type": "function"
    },
    {
      "constant": true,
      "inputs": [],
      "name": "authority",
      "outputs": [
        {
          "name": "",
          "type": "address"
        }
      ],
      "payable": false,
      "stateMutability": "view",
      "type": "function"
    },
    {
      "inputs": [],
      "payable": false,
      "stateMutability": "nonpayable",
      "type": "constructor"
    },
    {
      "anonymous": false,
      "inputs": [
        {
          "indexed": true,
          "name": "oldOwner",
          "type": "address"
        },
        {
          "indexed": true,
          "name": "newOwner",
          "type": "address"
        }
      ],
      "name": "OwnerUpdate",
      "type": "event"
    },
    {
      "anonymous": false,
      "inputs": [
        {
          "indexed": true,
          "name": "oldAuthority",
          "type": "address"
        },
        {
          "indexed": true,
          "name": "newAuthority",
          "type": "address"
        }
      ],
      "name": "AuthorityUpdate",
      "type": "event"
    },
    {
      "constant": false,
      "inputs": [
        {
          "name": "newOwner",
          "type": "address"
        }
      ],
      "name": "setOwner",
      "outputs": [
        {
          "name": "",
          "type": "bool"
        }
      ],
      "payable": false,
      "stateMutability": "nonpayable",
      "type": "function"
    },
    {
      "constant": false,
      "inputs": [
        {
          "name": "newAuthority",
          "type": "address"
        }
      ],
      "name": "setAuthority",
      "outputs": [
        {
          "name": "",
          "type": "bool"
        }
      ],
      "payable": false,
      "stateMutability": "nonpayable",
      "type": "function"
    }
  ],
  "bytecode": "0x608060405234801561001057600080fd5b5060008054600160a060020a0319163317808255604051600160a060020a039190911691907f343765429aea5a34b3ff6a3785a98a5abb2597aca87bfbb58632c173d585373a908290a3610457806100696000396000f3006080604052600436106100615763ffffffff7c010000000000000000000000000000000000000000000000000000000060003504166313af403581146100665780637a9e5e4b1461009b5780638da5cb5b146100bc578063bf7e214f146100ed575b600080fd5b34801561007257600080fd5b50610087600160a060020a0360043516610102565b604080519115158252519081900360200190f35b3480156100a757600080fd5b50610087600160a060020a036004351661020a565b3480156100c857600080fd5b506100d1610311565b60408051600160a060020a039092168252519081900360200190f35b3480156100f957600080fd5b506100d1610320565b600061010c61032f565b151561019f57604080517f08c379a000000000000000000000000000000000000000000000000000000000815260206004820152602660248201527f6573636170653a417574686f726974793a63616c6c65722d6e6f742d6175746860448201527f6f72697a65640000000000000000000000000000000000000000000000000000606482015290519081900360840190fd5b60008054604051600160a060020a03808616939216917f343765429aea5a34b3ff6a3785a98a5abb2597aca87bfbb58632c173d585373a91a35060008054600160a060020a03831673ffffffffffffffffffffffffffffffffffffffff199091161790556001919050565b600061021461032f565b15156102a757604080517f08c379a000000000000000000000000000000000000000000000000000000000815260206004820152602660248201527f6573636170653a417574686f726974793a63616c6c65722d6e6f742d6175746860448201527f6f72697a65640000000000000000000000000000000000000000000000000000606482015290519081900360840190fd5b600154604051600160a060020a038085169216907fa1d9e0b26ffdd95159e4605308c755be7b756e3e5dd5c5756b4c77f644a5236490600090a35060018054600160a060020a03831673ffffffffffffffffffffffffffffffffffffffff19909116178155919050565b600054600160a060020a031681565b600154600160a060020a031681565b60008054600160a060020a031633141561034b57506001610428565b600154600160a060020a0316151561036557506000610428565b600154604080517fb70096130000000000000000000000000000000000000000000000000000000081523360048201523060248201527fffffffff000000000000000000000000000000000000000000000000000000006000351660448201529051600160a060020a039092169163b700961391606480820192602092909190829003018186803b1580156103f957600080fd5b505afa15801561040d573d6000803e3d6000fd5b505050506040513d602081101561042357600080fd5b505190505b905600a165627a7a72305820e971e2de27c1225e2dd370ae586211c3c844c3968781ff65b6dc4226330983b90029",
  "source": "pragma solidity ^0.4.24;\npragma experimental \"v0.5.0\";\n\n\ncontract AuthorityInterface {\n  function canCall(\n    address callerAddress,\n    address codeAddress,\n    bytes4 sig\n  )\n    public\n    view\n    returns (bool);\n}\n\n\ncontract AuthorizedInterface {\n  address public owner;\n  AuthorityInterface public authority;\n\n  modifier auth {\n    require(isAuthorized(),\"escape:Authority:caller-not-authorized\");\n    _;\n  }\n\n  event OwnerUpdate(address indexed oldOwner, address indexed newOwner);\n  event AuthorityUpdate(address indexed oldAuthority, address indexed newAuthority);\n\n  function setOwner(address newOwner) public returns (bool);\n\n  function setAuthority(AuthorityInterface newAuthority) public returns (bool);\n\n  function isAuthorized() internal returns (bool);\n}\n\n\ncontract Authorized is AuthorizedInterface {\n  constructor() public {\n    owner = msg.sender;\n    emit OwnerUpdate(0x0, owner);\n  }\n\n  function setOwner(address newOwner)\n    public\n    auth\n    returns (bool)\n  {\n    emit OwnerUpdate(owner, newOwner);\n    owner = newOwner;\n    return true;\n  }\n\n  function setAuthority(AuthorityInterface newAuthority)\n    public\n    auth\n    returns (bool)\n  {\n    emit AuthorityUpdate(authority, newAuthority);\n    authority = newAuthority;\n    return true;\n  }\n\n  function isAuthorized() internal returns (bool) {\n    if (msg.sender == owner) {\n      return true;\n    } else if (address(authority) == (0)) {\n      return false;\n    } else {\n      return authority.canCall(msg.sender, this, msg.sig);\n    }\n  }\n}\n\n\ncontract WhitelistAuthorityInterface is AuthorityInterface, AuthorizedInterface {\n  event SetCanCall(\n    address indexed callerAddress,\n    address indexed codeAddress,\n    bytes4 indexed sig,\n    bool can\n  );\n\n  event SetAnyoneCanCall(\n    address indexed codeAddress,\n    bytes4 indexed sig,\n    bool can\n  );\n\n  function setCanCall(\n    address callerAddress,\n    address codeAddress,\n    bytes4 sig,\n    bool can\n  )\n    public\n    returns (bool);\n\n  function setAnyoneCanCall(\n    address codeAddress,\n    bytes4 sig,\n    bool can\n  )\n    public\n    returns (bool);\n}\n\n\ncontract WhitelistAuthority is WhitelistAuthorityInterface, Authorized {\n  mapping (address => mapping (address => mapping (bytes4 => bool))) _canCall;\n  mapping (address => mapping (bytes4 => bool)) _anyoneCanCall;\n\n  function canCall(\n    address callerAddress,\n    address codeAddress,\n    bytes4 sig\n  )\n    public\n    view\n    returns (bool)\n  {\n    if (_anyoneCanCall[codeAddress][sig]) {\n      return true;\n    } else {\n      return _canCall[callerAddress][codeAddress][sig];\n    }\n  }\n\n  function setCanCall(\n    address callerAddress,\n    address codeAddress,\n    bytes4 sig,\n    bool can\n  )\n    public\n    auth\n    returns (bool)\n  {\n    _canCall[callerAddress][codeAddress][sig] = can;\n    emit SetCanCall(callerAddress, codeAddress, sig, can);\n    return true;\n  }\n\n  function setAnyoneCanCall(\n    address codeAddress,\n    bytes4 sig,\n    bool can\n  )\n    public\n    auth\n    returns (bool)\n  {\n    _anyoneCanCall[codeAddress][sig] = can;\n    emit SetAnyoneCanCall(codeAddress, sig, can);\n    return true;\n  }\n}\n",
  "sourcePath": "/Users/markomarinovic/Projects/Personal/devcon4/workshop-ether-package-manager/escape-truffle/contracts/Authority.sol",
  "compiler": {
    "name": "solc",
    "version": "0.4.24+commit.e67f0147.Emscripten.clang"
  },
  "schemaVersion": "2.0.1",
  "updatedAt": "2018-11-01T12:27:35.525Z"
}