{
  "contractName": "IndexedOrderedSetLib",
  "abi": [
    {
      "constant": true,
      "inputs": [
        {
          "name": "self",
          "type": "IndexedOrderedSetLib.IndexedOrderedSet storage"
        }
      ],
      "name": "size",
      "outputs": [
        {
          "name": "",
          "type": "uint256"
        }
      ],
      "payable": false,
      "stateMutability": "view",
      "type": "function"
    },
    {
      "constant": true,
      "inputs": [
        {
          "name": "self",
          "type": "IndexedOrderedSetLib.IndexedOrderedSet storage"
        },
        {
          "name": "value",
          "type": "bytes32"
        }
      ],
      "name": "contains",
      "outputs": [
        {
          "name": "",
          "type": "bool"
        }
      ],
      "payable": false,
      "stateMutability": "view",
      "type": "function"
    },
    {
      "constant": true,
      "inputs": [
        {
          "name": "self",
          "type": "IndexedOrderedSetLib.IndexedOrderedSet storage"
        },
        {
          "name": "value",
          "type": "bytes32"
        }
      ],
      "name": "indexOf",
      "outputs": [
        {
          "name": "",
          "type": "uint256"
        }
      ],
      "payable": false,
      "stateMutability": "view",
      "type": "function"
    },
    {
      "constant": false,
      "inputs": [
        {
          "name": "self",
          "type": "IndexedOrderedSetLib.IndexedOrderedSet storage"
        },
        {
          "name": "idx",
          "type": "uint256"
        }
      ],
      "name": "pop",
      "outputs": [
        {
          "name": "",
          "type": "bytes32"
        }
      ],
      "payable": false,
      "stateMutability": "nonpayable",
      "type": "function"
    },
    {
      "constant": false,
      "inputs": [
        {
          "name": "self",
          "type": "IndexedOrderedSetLib.IndexedOrderedSet storage"
        },
        {
          "name": "value",
          "type": "bytes32"
        }
      ],
      "name": "remove",
      "outputs": [
        {
          "name": "",
          "type": "bool"
        }
      ],
      "payable": false,
      "stateMutability": "nonpayable",
      "type": "function"
    },
    {
      "constant": true,
      "inputs": [
        {
          "name": "self",
          "type": "IndexedOrderedSetLib.IndexedOrderedSet storage"
        },
        {
          "name": "idx",
          "type": "uint256"
        }
      ],
      "name": "get",
      "outputs": [
        {
          "name": "",
          "type": "bytes32"
        }
      ],
      "payable": false,
      "stateMutability": "view",
      "type": "function"
    },
    {
      "constant": false,
      "inputs": [
        {
          "name": "self",
          "type": "IndexedOrderedSetLib.IndexedOrderedSet storage"
        },
        {
          "name": "value",
          "type": "bytes32"
        }
      ],
      "name": "add",
      "outputs": [
        {
          "name": "",
          "type": "bool"
        }
      ],
      "payable": false,
      "stateMutability": "nonpayable",
      "type": "function"
    }
  ],
  "bytecode": "0x610494610030600b82828239805160001a6073146000811461002057610022565bfe5b5030600052607381538281f30073000000000000000000000000000000000000000030146080604052600436106100995763ffffffff7c01000000000000000000000000000000000000000000000000000000006000350416631aeaa504811461009e57806326966f11146100bb5780632a2dbb48146100c957806377e91da1146100eb57806391d8a284146100f9578063ed05c0c514610114578063f78a9f951461012f575b600080fd5b6100a960043561014a565b60408051918252519081900360200190f35b6100a960043560243561014e565b6100d7600435602435610208565b604080519115158252519081900360200190f35b6100a9600435602435610223565b81801561010557600080fd5b506100d7600435602435610247565b81801561012057600080fd5b506100d76004356024356102a5565b81801561013b57600080fd5b506100a960043560243561036a565b5490565b6000828261015c8282610208565b15156101ef57604080517f08c379a000000000000000000000000000000000000000000000000000000000815260206004820152602b60248201527f6573636170653a496e64657865644f7264657265645365744c69623a76616c7560448201527f652d6e6f742d666f756e64000000000000000000000000000000000000000000606482015290519081900360840190fd5b5050506000908152600191909101602052604090205490565b600081815260028301602052604090205460ff165b92915050565b815460009083908390811061023457fe5b9060005260206000200154905092915050565b60006102538383610208565b156102605750600161021d565b5081546000828152600180850160209081526040808420859055828501875586845281842090940185905593825260029094019092529020805460ff19168217905590565b60008083836102b48282610208565b151561034757604080517f08c379a000000000000000000000000000000000000000000000000000000000815260206004820152602b60248201527f6573636170653a496e64657865644f7264657265645365744c69623a76616c7560448201527f652d6e6f742d666f756e64000000000000000000000000000000000000000000606482015290519081900360840190fd5b610351868661014e565b925061035d868461036a565b5060019695505050505050565b60008060006103798585610223565b85549092506000190184146103dc5784548590600019810190811061039a57fe5b906000526020600020015490508085600001858154811015156103b957fe5b600091825260208083209091019290925582815260018701909152604090208490555b8454600019016103ec868261041e565b5050600081815260018501602090815260408083208390556002909601905293909320805460ff191690555090919050565b81548183558181111561044257600083815260209020610442918101908301610447565b505050565b61046591905b80821115610461576000815560010161044d565b5090565b905600a165627a7a72305820fcf1f78249df237fec1bb1fdeabfd6140de6b4f8cd3d1eb4e1abd15f1949f3de0029",
  "source": "pragma solidity ^0.4.24;\npragma experimental \"v0.5.0\";\n\n/// @title Library implementing an array type which allows O(1) lookups on values.\n/// @author Piper Merriam <pipermerriam@gmail.com>\nlibrary IndexedOrderedSetLib {\n  struct IndexedOrderedSet {\n    bytes32[] _values;\n    mapping (bytes32 => uint) _valueIndices;\n    mapping (bytes32 => bool) _exists;\n  }\n\n  modifier requireValue(IndexedOrderedSet storage self, bytes32 value) {\n    require(contains(self, value), \"escape:IndexedOrderedSetLib:value-not-found\");\n    _;\n  }\n\n  /// @dev Returns the size of the set\n  /// @param self The set\n  function size(IndexedOrderedSet storage self)\n    public\n    view\n    returns (uint)\n  {\n    return self._values.length;\n  }\n\n  /// @dev Returns boolean if the key is in the set\n  /// @param self The set\n  /// @param value The value to check\n  function contains(IndexedOrderedSet storage self, bytes32 value)\n    public\n    view\n    returns (bool)\n  {\n    return self._exists[value];\n  }\n\n  /// @dev Returns the index of the value in the set.\n  /// @param self The set\n  /// @param value The value to look up the index for.\n  function indexOf(IndexedOrderedSet storage self, bytes32 value)\n    public\n    view\n    requireValue(self, value)\n    returns (uint)\n  {\n    return self._valueIndices[value];\n  }\n\n  /// @dev Removes the element at index idx from the set and returns it.\n  /// @param self The set\n  /// @param idx The index to remove and return.\n  function pop(IndexedOrderedSet storage self, uint idx) public returns (bytes32) {\n    bytes32 value = get(self, idx);\n\n    if (idx != self._values.length - 1) {\n      bytes32 movedValue = self._values[self._values.length - 1];\n      self._values[idx] = movedValue;\n      self._valueIndices[movedValue] = idx;\n    }\n    self._values.length -= 1;\n\n    delete self._valueIndices[value];\n    delete self._exists[value];\n\n    return value;\n  }\n\n  /// @dev Removes the element at index idx from the set\n  /// @param self The set\n  /// @param value The value to remove from the set.\n  function remove(IndexedOrderedSet storage self, bytes32 value)\n    public\n    requireValue(self, value)\n    returns (bool)\n  {\n    uint idx = indexOf(self, value);\n    pop(self, idx);\n    return true;\n  }\n\n  /// @dev Retrieves the element at the provided index.\n  /// @param self The set\n  /// @param idx The index to retrieve.\n  function get(IndexedOrderedSet storage self, uint idx)\n    public\n    view\n    returns (bytes32)\n  {\n    return self._values[idx];\n  }\n\n  /// @dev Pushes the new value onto the set\n  /// @param self The set\n  /// @param value The value to push.\n  function add(IndexedOrderedSet storage self, bytes32 value) public returns (bool) {\n    if (contains(self, value)) return true;\n\n    self._valueIndices[value] = self._values.length;\n    self._values.push(value);\n    self._exists[value] = true;\n\n    return true;\n  }\n}\n",
  "sourcePath": "/Users/markomarinovic/Projects/Personal/devcon4/workshop-ether-package-manager/escape-truffle/contracts/IndexedOrderedSetLib.sol",
  "compiler": {
    "name": "solc",
    "version": "0.4.24+commit.e67f0147.Emscripten.clang"
  },
  "schemaVersion": "2.0.1",
  "updatedAt": "2018-11-01T12:27:35.531Z"
}