{
  "contractName": "PackageRegistry",
  "abi": [
    {
      "constant": false,
      "inputs": [
        {
          "name": "newOwner",
          "type": "address"
        }
      ],
      "name": "setOwner",
      "outputs": [
        {
          "name": "",
          "type": "bool"
        }
      ],
      "payable": false,
      "stateMutability": "nonpayable",
      "type": "function"
    },
    {
      "constant": false,
      "inputs": [
        {
          "name": "newAuthority",
          "type": "address"
        }
      ],
      "name": "setAuthority",
      "outputs": [
        {
          "name": "",
          "type": "bool"
        }
      ],
      "payable": false,
      "stateMutability": "nonpayable",
      "type": "function"
    },
    {
      "constant": true,
      "inputs": [],
      "name": "owner",
      "outputs": [
        {
          "name": "",
          "type": "address"
        }
      ],
      "payable": false,
      "stateMutability": "view",
      "type": "function"
    },
    {
      "constant": true,
      "inputs": [],
      "name": "authority",
      "outputs": [
        {
          "name": "",
          "type": "address"
        }
      ],
      "payable": false,
      "stateMutability": "view",
      "type": "function"
    },
    {
      "anonymous": false,
      "inputs": [
        {
          "indexed": true,
          "name": "nameHash",
          "type": "bytes32"
        },
        {
          "indexed": true,
          "name": "releaseId",
          "type": "bytes32"
        }
      ],
      "name": "PackageRelease",
      "type": "event"
    },
    {
      "anonymous": false,
      "inputs": [
        {
          "indexed": true,
          "name": "oldOwner",
          "type": "address"
        },
        {
          "indexed": true,
          "name": "newOwner",
          "type": "address"
        }
      ],
      "name": "PackageTransfer",
      "type": "event"
    },
    {
      "anonymous": false,
      "inputs": [
        {
          "indexed": true,
          "name": "oldOwner",
          "type": "address"
        },
        {
          "indexed": true,
          "name": "newOwner",
          "type": "address"
        }
      ],
      "name": "OwnerUpdate",
      "type": "event"
    },
    {
      "anonymous": false,
      "inputs": [
        {
          "indexed": true,
          "name": "oldAuthority",
          "type": "address"
        },
        {
          "indexed": true,
          "name": "newAuthority",
          "type": "address"
        }
      ],
      "name": "AuthorityUpdate",
      "type": "event"
    },
    {
      "constant": false,
      "inputs": [
        {
          "name": "newPackageDb",
          "type": "address"
        }
      ],
      "name": "setPackageDb",
      "outputs": [
        {
          "name": "",
          "type": "bool"
        }
      ],
      "payable": false,
      "stateMutability": "nonpayable",
      "type": "function"
    },
    {
      "constant": false,
      "inputs": [
        {
          "name": "newReleaseDb",
          "type": "address"
        }
      ],
      "name": "setReleaseDb",
      "outputs": [
        {
          "name": "",
          "type": "bool"
        }
      ],
      "payable": false,
      "stateMutability": "nonpayable",
      "type": "function"
    },
    {
      "constant": false,
      "inputs": [
        {
          "name": "newReleaseValidator",
          "type": "address"
        }
      ],
      "name": "setReleaseValidator",
      "outputs": [
        {
          "name": "",
          "type": "bool"
        }
      ],
      "payable": false,
      "stateMutability": "nonpayable",
      "type": "function"
    },
    {
      "constant": false,
      "inputs": [
        {
          "name": "name",
          "type": "string"
        },
        {
          "name": "version",
          "type": "string"
        },
        {
          "name": "manifestURI",
          "type": "string"
        }
      ],
      "name": "release",
      "outputs": [
        {
          "name": "id",
          "type": "bytes32"
        }
      ],
      "payable": false,
      "stateMutability": "nonpayable",
      "type": "function"
    },
    {
      "constant": false,
      "inputs": [
        {
          "name": "name",
          "type": "string"
        },
        {
          "name": "newPackageOwner",
          "type": "address"
        }
      ],
      "name": "transferPackageOwner",
      "outputs": [
        {
          "name": "",
          "type": "bool"
        }
      ],
      "payable": false,
      "stateMutability": "nonpayable",
      "type": "function"
    },
    {
      "constant": true,
      "inputs": [],
      "name": "getPackageDb",
      "outputs": [
        {
          "name": "",
          "type": "address"
        }
      ],
      "payable": false,
      "stateMutability": "view",
      "type": "function"
    },
    {
      "constant": true,
      "inputs": [],
      "name": "getReleaseDb",
      "outputs": [
        {
          "name": "",
          "type": "address"
        }
      ],
      "payable": false,
      "stateMutability": "view",
      "type": "function"
    },
    {
      "constant": true,
      "inputs": [],
      "name": "getReleaseValidator",
      "outputs": [
        {
          "name": "",
          "type": "address"
        }
      ],
      "payable": false,
      "stateMutability": "view",
      "type": "function"
    },
    {
      "constant": true,
      "inputs": [
        {
          "name": "name",
          "type": "string"
        }
      ],
      "name": "packageExists",
      "outputs": [
        {
          "name": "",
          "type": "bool"
        }
      ],
      "payable": false,
      "stateMutability": "view",
      "type": "function"
    },
    {
      "constant": true,
      "inputs": [
        {
          "name": "name",
          "type": "string"
        },
        {
          "name": "version",
          "type": "string"
        }
      ],
      "name": "releaseExists",
      "outputs": [
        {
          "name": "",
          "type": "bool"
        }
      ],
      "payable": false,
      "stateMutability": "view",
      "type": "function"
    },
    {
      "constant": true,
      "inputs": [
        {
          "name": "_offset",
          "type": "uint256"
        },
        {
          "name": "limit",
          "type": "uint256"
        }
      ],
      "name": "getAllPackageIds",
      "outputs": [
        {
          "name": "packageIds",
          "type": "bytes32[]"
        },
        {
          "name": "offset",
          "type": "uint256"
        }
      ],
      "payable": false,
      "stateMutability": "view",
      "type": "function"
    },
    {
      "constant": true,
      "inputs": [
        {
          "name": "nameHash",
          "type": "bytes32"
        }
      ],
      "name": "getPackageName",
      "outputs": [
        {
          "name": "",
          "type": "string"
        }
      ],
      "payable": false,
      "stateMutability": "view",
      "type": "function"
    },
    {
      "constant": true,
      "inputs": [
        {
          "name": "name",
          "type": "string"
        }
      ],
      "name": "getPackageData",
      "outputs": [
        {
          "name": "packageOwner",
          "type": "address"
        },
        {
          "name": "createdAt",
          "type": "uint256"
        },
        {
          "name": "numReleases",
          "type": "uint256"
        },
        {
          "name": "updatedAt",
          "type": "uint256"
        }
      ],
      "payable": false,
      "stateMutability": "view",
      "type": "function"
    },
    {
      "constant": true,
      "inputs": [
        {
          "name": "releaseId",
          "type": "bytes32"
        }
      ],
      "name": "getReleaseData",
      "outputs": [
        {
          "name": "name",
          "type": "string"
        },
        {
          "name": "version",
          "type": "string"
        },
        {
          "name": "manifestURI",
          "type": "string"
        }
      ],
      "payable": false,
      "stateMutability": "view",
      "type": "function"
    },
    {
      "constant": true,
      "inputs": [
        {
          "name": "name",
          "type": "string"
        },
        {
          "name": "_offset",
          "type": "uint256"
        },
        {
          "name": "limit",
          "type": "uint256"
        }
      ],
      "name": "getAllReleaseIds",
      "outputs": [
        {
          "name": "releaseIds",
          "type": "bytes32[]"
        },
        {
          "name": "offset",
          "type": "uint256"
        }
      ],
      "payable": false,
      "stateMutability": "view",
      "type": "function"
    },
    {
      "constant": true,
      "inputs": [
        {
          "name": "name",
          "type": "string"
        },
        {
          "name": "version",
          "type": "string"
        }
      ],
      "name": "generateReleaseId",
      "outputs": [
        {
          "name": "",
          "type": "bytes32"
        }
      ],
      "payable": false,
      "stateMutability": "view",
      "type": "function"
    }
  ],
  "bytecode": "0x6080604081905260008054600160a060020a0319163317808255600160a060020a0316917f343765429aea5a34b3ff6a3785a98a5abb2597aca87bfbb58632c173d585373a908290a3612aa4806100576000396000f3006080604052600436106100f85763ffffffff60e060020a60003504166306fe1fd781146100fd57806310ae4ce21461018a57806313af4035146101bf578063271cd760146101e057806334c0d65414610211578063379037dc1461023257806343212cf1146103195780634961b40c1461038f5780634c4aea87146103a45780634f197ee7146105005780637a9e5e4b1461056457806383ea0620146105855780638da5cb5b146105de578063b4b42e35146105f3578063bf7e214f1461068a578063c2ba5b401461069f578063c999a3b214610728578063efae87d71461078a578063f314bf4614610821578063fb3a1fb214610842575b600080fd5b34801561010957600080fd5b50610115600435610857565b6040805160208082528351818301528351919283929083019185019080838360005b8381101561014f578181015183820152602001610137565b50505050905090810190601f16801561017c5780820380516001836020036101000a031916815260200191505b509250505060405180910390f35b34801561019657600080fd5b506101ab600160a060020a036004351661094a565b604080519115158252519081900360200190f35b3480156101cb57600080fd5b506101ab600160a060020a03600435166109dc565b3480156101ec57600080fd5b506101f5610aa7565b60408051600160a060020a039092168252519081900360200190f35b34801561021d57600080fd5b506101ab600160a060020a0360043516610ab7565b34801561023e57600080fd5b506040805160206004803580820135601f810184900484028501840190955284845261030794369492936024939284019190819084018382808284375050604080516020601f89358b018035918201839004830284018301909452808352979a99988101979196509182019450925082915084018382808284375050604080516020601f89358b018035918201839004830284018301909452808352979a999881019791965091820194509250829150840183828082843750949750610b499650505050505050565b60408051918252519081900360200190f35b34801561032557600080fd5b50610334600435602435611649565b6040518080602001838152602001828103825284818151815260200191508051906020019060200280838360005b8381101561037a578181015183820152602001610362565b50505050905001935050505060405180910390f35b34801561039b57600080fd5b506101f5611755565b3480156103b057600080fd5b506103bc600435611764565b60405180806020018060200180602001848103845287818151815260200191508051906020019080838360005b838110156104015781810151838201526020016103e9565b50505050905090810190601f16801561042e5780820380516001836020036101000a031916815260200191505b50848103835286518152865160209182019188019080838360005b83811015610461578181015183820152602001610449565b50505050905090810190601f16801561048e5780820380516001836020036101000a031916815260200191505b50848103825285518152855160209182019187019080838360005b838110156104c15781810151838201526020016104a9565b50505050905090810190601f1680156104ee5780820380516001836020036101000a031916815260200191505b50965050505050505060405180910390f35b34801561050c57600080fd5b506040805160206004803580820135601f81018490048402850184019095528484526101ab94369492936024939284019190819084018382808284375094975050509235600160a060020a03169350611adc92505050565b34801561057057600080fd5b506101ab600160a060020a0360043516611d04565b34801561059157600080fd5b506040805160206004803580820135601f81018490048402850184019095528484526101ab943694929360249392840191908190840183828082843750949750611dce9650505050505050565b3480156105ea57600080fd5b506101f5611f1c565b3480156105ff57600080fd5b506040805160206004803580820135601f810184900484028501840190955284845261030794369492936024939284019190819084018382808284375050604080516020601f89358b018035918201839004830284018301909452808352979a999881019791965091820194509250829150840183828082843750949750611f2b9650505050505050565b34801561069657600080fd5b506101f5612188565b3480156106ab57600080fd5b506040805160206004803580820135601f81018490048402850184019095528484526106f89436949293602493928401919081908401838280828437509497506121979650505050505050565b60408051600160a060020a0390951685526020850193909352838301919091526060830152519081900360800190f35b34801561073457600080fd5b506040805160206004803580820135601f81018490048402850184019095528484526103349436949293602493928401919081908401838280828437509497505084359550505060209092013591506123b59050565b34801561079657600080fd5b506040805160206004803580820135601f81018490048402850184019095528484526101ab94369492936024939284019190819084018382808284375050604080516020601f89358b018035918201839004830284018301909452808352979a9998810197919650918201945092508291508401838280828437509497506125aa9650505050505050565b34801561082d57600080fd5b506101ab600160a060020a0360043516612892565b34801561084e57600080fd5b506101f5612924565b600254604080517f06fe1fd7000000000000000000000000000000000000000000000000000000008152600481018490529051606092600160a060020a0316916306fe1fd7916024808301926000929190829003018186803b1580156108bc57600080fd5b505afa1580156108d0573d6000803e3d6000fd5b505050506040513d6000823e601f3d908101601f1916820160405260208110156108f957600080fd5b81019080805164010000000081111561091157600080fd5b8201602081018481111561092457600080fd5b815164010000000081118282018710171561093e57600080fd5b50909695505050505050565b6000610954612933565b15156109aa576040805160e560020a62461bcd0281526020600482015260266024820152600080516020612a59833981519152604482015260d260020a651bdc9a5e995902606482015290519081900360840190fd5b5060048054600160a060020a03831673ffffffffffffffffffffffffffffffffffffffff199091161790556001919050565b60006109e6612933565b1515610a3c576040805160e560020a62461bcd0281526020600482015260266024820152600080516020612a59833981519152604482015260d260020a651bdc9a5e995902606482015290519081900360840190fd5b60008054604051600160a060020a03808616939216917f343765429aea5a34b3ff6a3785a98a5abb2597aca87bfbb58632c173d585373a91a35060008054600160a060020a03831673ffffffffffffffffffffffffffffffffffffffff199091161790556001919050565b600254600160a060020a03165b90565b6000610ac1612933565b1515610b17576040805160e560020a62461bcd0281526020600482015260266024820152600080516020612a59833981519152604482015260d260020a651bdc9a5e995902606482015290519081900360840190fd5b5060028054600160a060020a03831673ffffffffffffffffffffffffffffffffffffffff199091161790556001919050565b6000806000806000610b59612933565b1515610baf576040805160e560020a62461bcd0281526020600482015260266024820152600080516020612a59833981519152604482015260d260020a651bdc9a5e995902606482015290519081900360840190fd5b600254600160a060020a03161515610c37576040805160e560020a62461bcd02815260206004820152602660248201527f6573636170653a5061636b616765496e6465783a7061636b6167652d64622d6e60448201527f6f742d7365740000000000000000000000000000000000000000000000000000606482015290519081900360840190fd5b600354600160a060020a03161515610cbf576040805160e560020a62461bcd02815260206004820152602660248201527f6573636170653a5061636b616765496e6465783a72656c656173652d64622d6e60448201527f6f742d7365740000000000000000000000000000000000000000000000000000606482015290519081900360840190fd5b600454600160a060020a03161515610d47576040805160e560020a62461bcd02815260206004820152602d60248201527f6573636170653a5061636b616765496e6465783a72656c656173652d76616c6960448201527f6461746f722d6e6f742d73657400000000000000000000000000000000000000606482015290519081900360840190fd5b6003546040517f1a2b3f620000000000000000000000000000000000000000000000000000000081526020600482018181528a5160248401528a51600160a060020a0390941693631a2b3f62938c9383926044909201919085019080838360005b83811015610dc0578181015183820152602001610da8565b50505050905090810190601f168015610ded5780820380516001836020036101000a031916815260200191505b509250505060206040518083038186803b158015610e0a57600080fd5b505afa158015610e1e573d6000803e3d6000fd5b505050506040513d6020811015610e3457600080fd5b5051600354604080517fbb814e9e000000000000000000000000000000000000000000000000000000008152600481018490529051929650600160a060020a039091169163bb814e9e91602480820192602092909190829003018186803b158015610e9e57600080fd5b505afa158015610eb2573d6000803e3d6000fd5b505050506040513d6020811015610ec857600080fd5b50511515610fc2576003546040517f788bc78c0000000000000000000000000000000000000000000000000000000081526020600482018181528a5160248401528a51600160a060020a039094169363788bc78c938c9383926044909201919085019080838360005b83811015610f49578181015183820152602001610f31565b50505050905090810190601f168015610f765780820380516001836020036101000a031916815260200191505b5092505050602060405180830381600087803b158015610f9557600080fd5b505af1158015610fa9573d6000803e3d6000fd5b505050506040513d6020811015610fbf57600080fd5b50505b600460009054906101000a9004600160a060020a0316600160a060020a031663028fe498600260009054906101000a9004600160a060020a0316600360009054906101000a9004600160a060020a0316338c8c8c6040518763ffffffff1660e060020a0281526004018087600160a060020a0316600160a060020a0316815260200186600160a060020a0316600160a060020a0316815260200185600160a060020a0316600160a060020a03168152602001806020018060200180602001848103845287818151815260200191508051906020019080838360005b838110156110b557818101518382015260200161109d565b50505050905090810190601f1680156110e25780820380516001836020036101000a031916815260200191505b50848103835286518152865160209182019188019080838360005b838110156111155781810151838201526020016110fd565b50505050905090810190601f1680156111425780820380516001836020036101000a031916815260200191505b50848103825285518152855160209182019187019080838360005b8381101561117557818101518382015260200161115d565b50505050905090810190601f1680156111a25780820380516001836020036101000a031916815260200191505b50995050505050505050505060206040518083038186803b1580156111c657600080fd5b505afa1580156111da573d6000803e3d6000fd5b505050506040513d60208110156111f057600080fd5b506111fc905088611dce565b6002546040517f083ae1fe0000000000000000000000000000000000000000000000000000000081526020600482018181528c5160248401528c51949750600160a060020a039093169363083ae1fe938d93909283926044909201919085019080838360005b8381101561127a578181015183820152602001611262565b50505050905090810190601f1680156112a75780820380516001836020036101000a031916815260200191505b5092505050602060405180830381600087803b1580156112c657600080fd5b505af11580156112da573d6000803e3d6000fd5b505050506040513d60208110156112f057600080fd5b505060025460405160e060020a63af9a3f9b0281526020600482018181528b5160248401528b51600160a060020a039094169363af9a3f9b938d9383926044909201919085019080838360005b8381101561135557818101518382015260200161133d565b50505050905090810190601f1680156113825780820380516001836020036101000a031916815260200191505b509250505060206040518083038186803b15801561139f57600080fd5b505afa1580156113b3573d6000803e3d6000fd5b505050506040513d60208110156113c957600080fd5b5051915082151561146e57600254604080517f2406cedb000000000000000000000000000000000000000000000000000000008152600481018590523360248201529051600160a060020a0390921691632406cedb916044808201926020929091908290030181600087803b15801561144157600080fd5b505af1158015611455573d6000803e3d6000fd5b505050506040513d602081101561146b57600080fd5b50505b6003546040517f8b8594090000000000000000000000000000000000000000000000000000000081526004810184815260248201879052606060448301908152895160648401528951600160a060020a0390941693638b8594099387938a938d9391929091608490910190602085019080838360005b838110156114fc5781810151838201526020016114e4565b50505050905090810190601f1680156115295780820380516001836020036101000a031916815260200191505b50945050505050602060405180830381600087803b15801561154a57600080fd5b505af115801561155e573d6000803e3d6000fd5b505050506040513d602081101561157457600080fd5b5050600354604080517f93d7910500000000000000000000000000000000000000000000000000000000815260048101859052602481018790529051600160a060020a03909216916393d7910591604480820192602092909190829003018186803b1580156115e257600080fd5b505afa1580156115f6573d6000803e3d6000fd5b505050506040513d602081101561160c57600080fd5b5051604051909150819083907fac0f7a48e2519eee455114a50e2ccd53b8f68a28609b5532bdb924638d3d4a0790600090a3979650505050505050565b600254604080517f43212cf100000000000000000000000000000000000000000000000000000000815260048101859052602481018490529051606092600092600160a060020a03909116916343212cf1916044808201928692909190829003018186803b1580156116ba57600080fd5b505afa1580156116ce573d6000803e3d6000fd5b505050506040513d6000823e601f3d908101601f1916820160409081528110156116f757600080fd5b81019080805164010000000081111561170f57600080fd5b8201602081018481111561172257600080fd5b815185602082028301116401000000008211171561173f57600080fd5b5050602090910151909450925050509250929050565b600454600160a060020a031690565b600354604080517f4c4aea87000000000000000000000000000000000000000000000000000000008152600481018490529051606092839283926000928392600160a060020a0390911691634c4aea8791602480820192608092909190829003018186803b1580156117d557600080fd5b505afa1580156117e9573d6000803e3d6000fd5b505050506040513d60808110156117ff57600080fd5b508051602090910151600254604080517f06fe1fd7000000000000000000000000000000000000000000000000000000008152600481018590529051929550929350600160a060020a0316916306fe1fd7916024808301926000929190829003018186803b15801561187057600080fd5b505afa158015611884573d6000803e3d6000fd5b505050506040513d6000823e601f3d908101601f1916820160405260208110156118ad57600080fd5b8101908080516401000000008111156118c557600080fd5b820160208101848111156118d857600080fd5b81516401000000008111828201871017156118f257600080fd5b5050600354604080517f9aaf9f08000000000000000000000000000000000000000000000000000000008152600481018990529051929a50600160a060020a039091169450639aaf9f0893506024808201935060009291829003018186803b15801561195d57600080fd5b505afa158015611971573d6000803e3d6000fd5b505050506040513d6000823e601f3d908101601f19168201604052602081101561199a57600080fd5b8101908080516401000000008111156119b257600080fd5b820160208101848111156119c557600080fd5b81516401000000008111828201871017156119df57600080fd5b5050600354604080517fd672640d000000000000000000000000000000000000000000000000000000008152600481018d90529051929950600160a060020a03909116945063d672640d93506024808201935060009291829003018186803b158015611a4a57600080fd5b505afa158015611a5e573d6000803e3d6000fd5b505050506040513d6000823e601f3d908101601f191682016040526020811015611a8757600080fd5b810190808051640100000000811115611a9f57600080fd5b82016020810184811115611ab257600080fd5b8151640100000000811182820187101715611acc57600080fd5b50989a9799509750505050505050565b600080611ae7612933565b1515611b3d576040805160e560020a62461bcd0281526020600482015260266024820152600080516020612a59833981519152604482015260d260020a651bdc9a5e995902606482015290519081900360840190fd5b611b478433612a30565b15611b555760009150611cfd565b611b5e84612197565b505060405191925050600160a060020a0380851691908316907fa99a0b26852fc94fb40663ad64c63bac913f2e345ff098ea82209694879cb95e90600090a360025460405160e060020a63af9a3f9b028152602060048201818152875160248401528751600160a060020a0390941693632406cedb93859363af9a3f9b938b93909283926044909101919085019080838360005b83811015611c0a578181015183820152602001611bf2565b50505050905090810190601f168015611c375780820380516001836020036101000a031916815260200191505b509250505060206040518083038186803b158015611c5457600080fd5b505afa158015611c68573d6000803e3d6000fd5b505050506040513d6020811015611c7e57600080fd5b50516040805160e060020a63ffffffff85160281526004810192909252600160a060020a03871660248301525160448083019260209291908290030181600087803b158015611ccc57600080fd5b505af1158015611ce0573d6000803e3d6000fd5b505050506040513d6020811015611cf657600080fd5b5060019250505b5092915050565b6000611d0e612933565b1515611d64576040805160e560020a62461bcd0281526020600482015260266024820152600080516020612a59833981519152604482015260d260020a651bdc9a5e995902606482015290519081900360840190fd5b600154604051600160a060020a038085169216907fa1d9e0b26ffdd95159e4605308c755be7b756e3e5dd5c5756b4c77f644a5236490600090a35060018054600160a060020a03831673ffffffffffffffffffffffffffffffffffffffff19909116178155919050565b60025460405160e060020a63af9a3f9b028152602060048201818152845160248401528451600094600160a060020a03169363a9b3524093859363af9a3f9b9389939192839260440191908501908083838d5b83811015611e39578181015183820152602001611e21565b50505050905090810190601f168015611e665780820380516001836020036101000a031916815260200191505b509250505060206040518083038186803b158015611e8357600080fd5b505afa158015611e97573d6000803e3d6000fd5b505050506040513d6020811015611ead57600080fd5b50516040805160e060020a63ffffffff85160281526004810192909252516024808301926020929190829003018186803b158015611eea57600080fd5b505afa158015611efe573d6000803e3d6000fd5b505050506040513d6020811015611f1457600080fd5b505192915050565b600054600160a060020a031681565b60025460405160e060020a63af9a3f9b02815260206004820181815285516024840152855160009485948594600160a060020a039092169363af9a3f9b938a9391928392604490910191908501908083838b5b83811015611f96578181015183820152602001611f7e565b50505050905090810190601f168015611fc35780820380516001836020036101000a031916815260200191505b509250505060206040518083038186803b158015611fe057600080fd5b505afa158015611ff4573d6000803e3d6000fd5b505050506040513d602081101561200a57600080fd5b50516003546040517f1a2b3f62000000000000000000000000000000000000000000000000000000008152602060048201818152885160248401528851949650600160a060020a0390931693631a2b3f62938993909283926044909201919085019080838360005b8381101561208a578181015183820152602001612072565b50505050905090810190601f1680156120b75780820380516001836020036101000a031916815260200191505b509250505060206040518083038186803b1580156120d457600080fd5b505afa1580156120e8573d6000803e3d6000fd5b505050506040513d60208110156120fe57600080fd5b50516040805160208181018690528183018490528251808303840181526060909201928390528151939450909282918401908083835b602083106121535780518252601f199092019160209182019101612134565b5181516020939093036101000a6000190180199091169216919091179052604051920182900390912098975050505050505050565b600154600160a060020a031681565b60025460405160e060020a63af9a3f9b0281526020600482018181528451602484015284516000948594859485948594600160a060020a039094169363af9a3f9b938b938392604490920191908501908083838b5b838110156122045781810151838201526020016121ec565b50505050905090810190601f1680156122315780820380516001836020036101000a031916815260200191505b509250505060206040518083038186803b15801561224e57600080fd5b505afa158015612262573d6000803e3d6000fd5b505050506040513d602081101561227857600080fd5b5051600254604080517fb4d6d4c7000000000000000000000000000000000000000000000000000000008152600481018490529051929350600160a060020a039091169163b4d6d4c791602480820192606092909190829003018186803b1580156122e257600080fd5b505afa1580156122f6573d6000803e3d6000fd5b505050506040513d606081101561230c57600080fd5b50805160208083015160409384015160035485517f173cb7de000000000000000000000000000000000000000000000000000000008152600481018890529551949a509198509550600160a060020a03169263173cb7de9260248083019392829003018186803b15801561237f57600080fd5b505afa158015612393573d6000803e3d6000fd5b505050506040513d60208110156123a957600080fd5b50519250509193509193565b60025460405160e060020a63af9a3f9b0281526020600482018181528651602484015286516060946000948594600160a060020a039092169363af9a3f9b938b9391928392604490910191908501908083838b5b83811015612421578181015183820152602001612409565b50505050905090810190601f16801561244e5780820380516001836020036101000a031916815260200191505b509250505060206040518083038186803b15801561246b57600080fd5b505afa15801561247f573d6000803e3d6000fd5b505050506040513d602081101561249557600080fd5b5051600354604080517ffa6bf4da0000000000000000000000000000000000000000000000000000000081526004810184905260248101899052604481018890529051929350600160a060020a039091169163fa6bf4da91606480820192600092909190829003018186803b15801561250d57600080fd5b505afa158015612521573d6000803e3d6000fd5b505050506040513d6000823e601f3d908101601f19168201604090815281101561254a57600080fd5b81019080805164010000000081111561256257600080fd5b8201602081018481111561257557600080fd5b815185602082028301116401000000008211171561259257600080fd5b50506020909101519095509350505050935093915050565b60025460405160e060020a63af9a3f9b02815260206004820181815285516024840152855160009485948594600160a060020a039092169363af9a3f9b938a9391928392604490910191908501908083838b5b838110156126155781810151838201526020016125fd565b50505050905090810190601f1680156126425780820380516001836020036101000a031916815260200191505b509250505060206040518083038186803b15801561265f57600080fd5b505afa158015612673573d6000803e3d6000fd5b505050506040513d602081101561268957600080fd5b50516003546040517f1a2b3f62000000000000000000000000000000000000000000000000000000008152602060048201818152885160248401528851949650600160a060020a0390931693631a2b3f62938993909283926044909201919085019080838360005b838110156127095781810151838201526020016126f1565b50505050905090810190601f1680156127365780820380516001836020036101000a031916815260200191505b509250505060206040518083038186803b15801561275357600080fd5b505afa158015612767573d6000803e3d6000fd5b505050506040513d602081101561277d57600080fd5b5051600354604080517f93d7910500000000000000000000000000000000000000000000000000000000815260048101869052602481018490529051929350600160a060020a0390911691633f4157729183916393d7910591604480820192602092909190829003018186803b1580156127f657600080fd5b505afa15801561280a573d6000803e3d6000fd5b505050506040513d602081101561282057600080fd5b50516040805160e060020a63ffffffff85160281526004810192909252516024808301926020929190829003018186803b15801561285d57600080fd5b505afa158015612871573d6000803e3d6000fd5b505050506040513d602081101561288757600080fd5b505195945050505050565b600061289c612933565b15156128f2576040805160e560020a62461bcd0281526020600482015260266024820152600080516020612a59833981519152604482015260d260020a651bdc9a5e995902606482015290519081900360840190fd5b5060038054600160a060020a03831673ffffffffffffffffffffffffffffffffffffffff199091161790556001919050565b600354600160a060020a031690565b60008054600160a060020a031633141561294f57506001610ab4565b600154600160a060020a0316151561296957506000610ab4565b600154604080517fb70096130000000000000000000000000000000000000000000000000000000081523360048201523060248201527fffffffff000000000000000000000000000000000000000000000000000000006000351660448201529051600160a060020a039092169163b700961391606480820192602092909190829003018186803b1580156129fd57600080fd5b505afa158015612a11573d6000803e3d6000fd5b505050506040513d6020811015612a2757600080fd5b50519050610ab4565b600080612a3c84612197565b505050600160a060020a0393841693169290921415939250505056006573636170653a417574686f726974793a63616c6c65722d6e6f742d61757468a165627a7a7230582024eaef86260ceea92ee1a5280f58eb860cfd55b6246a221f5593f21953ef934b0029",
  "source": "pragma solidity ^0.4.24;\npragma experimental \"v0.5.0\";\n\n\nimport {PackageDB} from \"./PackageDB.sol\";\nimport {ReleaseDB} from \"./ReleaseDB.sol\";\nimport {ReleaseValidator} from \"./ReleaseValidator.sol\";\nimport {PackageRegistryInterface} from \"./PackageRegistryInterface.sol\";\nimport {Authorized} from \"./Authority.sol\";\n\n\n/// @title Database contract for a package index.\n/// @author Tim Coulter <tim.coulter@consensys.net>, Piper Merriam <pipermerriam@gmail.com>\ncontract PackageRegistry is Authorized, PackageRegistryInterface {\n  PackageDB private packageDb;\n  ReleaseDB private releaseDb;\n  ReleaseValidator private releaseValidator;\n\n  // Events\n  event PackageRelease(bytes32 indexed nameHash, bytes32 indexed releaseId);\n  event PackageTransfer(address indexed oldOwner, address indexed newOwner);\n\n  //\n  // Administrative API\n  //\n  /// @dev Sets the address of the PackageDb contract.\n  /// @param newPackageDb The address to set for the PackageDb.\n  function setPackageDb(address newPackageDb)\n    public\n    auth\n    returns (bool)\n  {\n    packageDb = PackageDB(newPackageDb);\n    return true;\n  }\n\n  /// @dev Sets the address of the ReleaseDb contract.\n  /// @param newReleaseDb The address to set for the ReleaseDb.\n  function setReleaseDb(address newReleaseDb)\n    public\n    auth\n    returns (bool)\n  {\n    releaseDb = ReleaseDB(newReleaseDb);\n    return true;\n  }\n\n  /// @dev Sets the address of the ReleaseValidator contract.\n  /// @param newReleaseValidator The address to set for the ReleaseValidator.\n  function setReleaseValidator(address newReleaseValidator)\n    public\n    auth\n    returns (bool)\n  {\n    releaseValidator = ReleaseValidator(newReleaseValidator);\n    return true;\n  }\n\n  //\n  // +-------------+\n  // |  Write API  |\n  // +-------------+\n  //\n  /// @dev Creates a a new release for the named package.  If this is the first release for the given package then this will also assign msg.sender as the owner of the package.  Returns success.\n  /// @notice Will create a new release the given package with the given release information.\n  /// @param name Package name\n  /// @param version Version string (ex: '1.0.0')\n  /// @param manifestURI The URI for the release manifest for this release.\n  function release(\n    string name,\n    string version,\n    string manifestURI\n  )\n    public\n    auth\n    returns (bytes32 id)\n  {\n    require(address(packageDb) != 0x0,        \"escape:PackageIndex:package-db-not-set\");\n    require(address(releaseDb) != 0x0,        \"escape:PackageIndex:release-db-not-set\");\n    require(address(releaseValidator) != 0x0, \"escape:PackageIndex:release-validator-not-set\");\n\n    bytes32 versionHash = releaseDb.hashVersion(version);\n\n    // If the version for this release is not in the version database, populate\n    // it.  This must happen prior to validation to ensure that the version is\n    // present in the releaseDb.\n    if (!releaseDb.versionExists(versionHash)) {\n      releaseDb.setVersion(version);\n    }\n\n    // Run release validator. This method reverts with an error message string\n    // on failure.\n    releaseValidator.validateRelease(\n      packageDb,\n      releaseDb,\n      msg.sender,\n      name,\n      version,\n      manifestURI\n    );\n\n    // Compute hashes\n    bool _packageExists = packageExists(name);\n\n    // Both creates the package if it is new as well as updating the updatedAt\n    // timestamp on the package.\n    packageDb.setPackage(name);\n\n    bytes32 nameHash = packageDb.hashName(name);\n\n    // If the package does not yet exist create it and set the owner\n    if (!_packageExists) {\n      packageDb.setPackageOwner(nameHash, msg.sender);\n    }\n\n    // Create the release and add it to the list of package release hashes.\n    releaseDb.setRelease(nameHash, versionHash, manifestURI);\n\n    // Log the release.\n    bytes32 releaseId = releaseDb.hashRelease(nameHash, versionHash);\n    emit PackageRelease(nameHash, releaseId);\n\n    return releaseId;\n  }\n\n  /// @dev Transfers package ownership to the provider new owner address.\n  /// @notice Will transfer ownership of this package to the provided new owner address.\n  /// @param name Package name\n  /// @param newPackageOwner The address of the new owner.\n  function transferPackageOwner(string name, address newPackageOwner)\n    public\n    auth\n    returns (bool)\n  {\n    if (isPackageOwner(name, msg.sender)) {\n      // Only the package owner may transfer package ownership.\n      return false;\n    }\n\n    // Lookup the current owner\n    address packageOwner;\n    (packageOwner,,,) = getPackageData(name);\n\n    // Log the transfer\n    emit PackageTransfer(packageOwner, newPackageOwner);\n\n    // Update the owner.\n    packageDb.setPackageOwner(packageDb.hashName(name), newPackageOwner);\n\n    return true;\n  }\n\n  //\n  // +------------+\n  // |  Read API  |\n  // +------------+\n  //\n\n  /// @dev Returns the address of the packageDb\n  function getPackageDb()\n    public\n    view\n    returns (address)\n  {\n    return address(packageDb);\n  }\n\n  /// @dev Returns the address of the releaseDb\n  function getReleaseDb()\n    public\n    view\n    returns (address)\n  {\n    return address(releaseDb);\n  }\n\n  /// @dev Returns the address of the releaseValidator\n  function getReleaseValidator()\n    public\n    view\n    returns (address)\n  {\n    return address(releaseValidator);\n  }\n\n  /// @dev Query the existence of a package with the given name.  Returns boolean indicating whether the package exists.\n  /// @param name Package name\n  function packageExists(string name)\n    public\n    view\n    returns (bool)\n  {\n    return packageDb.packageExists(packageDb.hashName(name));\n  }\n\n  /// @dev Query the existence of a release at the provided version for the named package.  Returns boolean indicating whether such a release exists.\n  /// @param name Package name\n  /// @param version Version string (ex: '1.0.0')\n  function releaseExists(\n    string name,\n    string version\n  )\n    public\n    view\n    returns (bool)\n  {\n    bytes32 nameHash = packageDb.hashName(name);\n    bytes32 versionHash = releaseDb.hashVersion(version);\n    return releaseDb.releaseExists(releaseDb.hashRelease(nameHash, versionHash));\n  }\n\n  /// @dev Returns a slice of the array of all package hashes for the named package.\n  /// @param _offset The starting index for the slice.\n  /// @param limit  The length of the slice\n  function getAllPackageIds(uint _offset, uint limit)\n    public\n    view\n    returns(\n      bytes32[] packageIds,\n      uint offset\n    )\n  {\n    return packageDb.getAllPackageIds(_offset, limit);\n  }\n\n  /// @dev Retrieves the name for the given name hash.\n  /// @param nameHash The name hash to lookup the name for.\n  function getPackageName(bytes32 nameHash)\n    public\n    view\n    returns (string)\n  {\n    return packageDb.getPackageName(nameHash);\n  }\n\n  /// @dev Returns the package data.\n  /// @param name Package name\n  function getPackageData(string name)\n    public\n    view\n    returns (\n      address packageOwner,\n      uint createdAt,\n      uint numReleases,\n      uint updatedAt\n    )\n  {\n    bytes32 nameHash = packageDb.hashName(name);\n    (packageOwner, createdAt, updatedAt) = packageDb.getPackageData(nameHash);\n    numReleases = releaseDb.getNumReleasesForNameHash(nameHash);\n    return (packageOwner, createdAt, numReleases, updatedAt);\n  }\n\n  /// @dev Returns the release data for the release associated with the given release hash.\n  /// @param releaseId The release hash.\n  function getReleaseData(bytes32 releaseId)\n    public\n    view\n    returns (\n      string name,\n      string version,\n      string manifestURI\n    )\n  {\n    bytes32 versionHash;\n    bytes32 nameHash;\n    (nameHash,versionHash, ,) = releaseDb.getReleaseData(releaseId);\n\n    name = packageDb.getPackageName(nameHash);\n    version = releaseDb.getVersion(versionHash);\n    manifestURI = releaseDb.getManifestURI(releaseId);\n\n    return (name, version, manifestURI);\n  }\n\n  /// @dev Returns a slice of the array of all package hashes for the named package.\n  /// @param offset The starting index for the slice.\n  /// @param limit  The length of the slice\n  function getAllReleaseIds(string name, uint _offset, uint limit)\n    public\n    view\n    returns (\n      bytes32[] releaseIds,\n      uint offset\n    )\n  {\n    bytes32 nameHash = packageDb.hashName(name);\n    return releaseDb.getAllReleaseIds(nameHash, _offset, limit);\n  }\n\n  // @dev Returns release id that *would* be generated for a name and version pair on `release`.\n  // @param name Package name\n  // @param version Version string (ex: '1.0.0')\n  function generateReleaseId(string name, string version)\n    public\n    view\n    returns (bytes32)\n  {\n    bytes32 nameHash = packageDb.hashName(name);\n    bytes32 versionHash = releaseDb.hashVersion(version);\n    return keccak256(abi.encodePacked(nameHash, versionHash));\n  }\n\n  //\n  // +----------------+\n  // |  Internal API  |\n  // +----------------+\n  //\n  /// @dev Returns boolean whether the provided address is the package owner\n  /// @param name The name of the package\n  /// @param _address The address to check\n  function isPackageOwner(string name, address _address)\n    internal\n    view\n    returns (bool)\n  {\n    address packageOwner;\n    (packageOwner,,,) = getPackageData(name);\n    return (packageOwner != _address);\n  }\n}\n",
  "sourcePath": "/Users/markomarinovic/Projects/Personal/devcon4/workshop-ether-package-manager/escape-truffle/contracts/PackageRegistry.sol",
  "compiler": {
    "name": "solc",
    "version": "0.4.24+commit.e67f0147.Emscripten.clang"
  },
  "schemaVersion": "2.0.1",
  "updatedAt": "2018-11-01T12:27:35.534Z"
}