{
  "contractName": "PackageDB",
  "abi": [
    {
      "constant": false,
      "inputs": [
        {
          "name": "newOwner",
          "type": "address"
        }
      ],
      "name": "setOwner",
      "outputs": [
        {
          "name": "",
          "type": "bool"
        }
      ],
      "payable": false,
      "stateMutability": "nonpayable",
      "type": "function"
    },
    {
      "constant": false,
      "inputs": [
        {
          "name": "newAuthority",
          "type": "address"
        }
      ],
      "name": "setAuthority",
      "outputs": [
        {
          "name": "",
          "type": "bool"
        }
      ],
      "payable": false,
      "stateMutability": "nonpayable",
      "type": "function"
    },
    {
      "constant": true,
      "inputs": [],
      "name": "owner",
      "outputs": [
        {
          "name": "",
          "type": "address"
        }
      ],
      "payable": false,
      "stateMutability": "view",
      "type": "function"
    },
    {
      "constant": true,
      "inputs": [],
      "name": "authority",
      "outputs": [
        {
          "name": "",
          "type": "address"
        }
      ],
      "payable": false,
      "stateMutability": "view",
      "type": "function"
    },
    {
      "anonymous": false,
      "inputs": [
        {
          "indexed": true,
          "name": "nameHash",
          "type": "bytes32"
        },
        {
          "indexed": true,
          "name": "releaseHash",
          "type": "bytes32"
        }
      ],
      "name": "PackageReleaseAdd",
      "type": "event"
    },
    {
      "anonymous": false,
      "inputs": [
        {
          "indexed": true,
          "name": "nameHash",
          "type": "bytes32"
        },
        {
          "indexed": true,
          "name": "releaseHash",
          "type": "bytes32"
        }
      ],
      "name": "PackageReleaseRemove",
      "type": "event"
    },
    {
      "anonymous": false,
      "inputs": [
        {
          "indexed": true,
          "name": "nameHash",
          "type": "bytes32"
        }
      ],
      "name": "PackageCreate",
      "type": "event"
    },
    {
      "anonymous": false,
      "inputs": [
        {
          "indexed": true,
          "name": "nameHash",
          "type": "bytes32"
        },
        {
          "indexed": false,
          "name": "reason",
          "type": "string"
        }
      ],
      "name": "PackageDelete",
      "type": "event"
    },
    {
      "anonymous": false,
      "inputs": [
        {
          "indexed": true,
          "name": "nameHash",
          "type": "bytes32"
        },
        {
          "indexed": true,
          "name": "oldOwner",
          "type": "address"
        },
        {
          "indexed": true,
          "name": "newOwner",
          "type": "address"
        }
      ],
      "name": "PackageOwnerUpdate",
      "type": "event"
    },
    {
      "anonymous": false,
      "inputs": [
        {
          "indexed": true,
          "name": "oldOwner",
          "type": "address"
        },
        {
          "indexed": true,
          "name": "newOwner",
          "type": "address"
        }
      ],
      "name": "OwnerUpdate",
      "type": "event"
    },
    {
      "anonymous": false,
      "inputs": [
        {
          "indexed": true,
          "name": "oldAuthority",
          "type": "address"
        },
        {
          "indexed": true,
          "name": "newAuthority",
          "type": "address"
        }
      ],
      "name": "AuthorityUpdate",
      "type": "event"
    },
    {
      "constant": false,
      "inputs": [
        {
          "name": "name",
          "type": "string"
        }
      ],
      "name": "setPackage",
      "outputs": [
        {
          "name": "",
          "type": "bool"
        }
      ],
      "payable": false,
      "stateMutability": "nonpayable",
      "type": "function"
    },
    {
      "constant": false,
      "inputs": [
        {
          "name": "nameHash",
          "type": "bytes32"
        },
        {
          "name": "reason",
          "type": "string"
        }
      ],
      "name": "removePackage",
      "outputs": [
        {
          "name": "",
          "type": "bool"
        }
      ],
      "payable": false,
      "stateMutability": "nonpayable",
      "type": "function"
    },
    {
      "constant": false,
      "inputs": [
        {
          "name": "nameHash",
          "type": "bytes32"
        },
        {
          "name": "newPackageOwner",
          "type": "address"
        }
      ],
      "name": "setPackageOwner",
      "outputs": [
        {
          "name": "",
          "type": "bool"
        }
      ],
      "payable": false,
      "stateMutability": "nonpayable",
      "type": "function"
    },
    {
      "constant": true,
      "inputs": [
        {
          "name": "nameHash",
          "type": "bytes32"
        }
      ],
      "name": "packageExists",
      "outputs": [
        {
          "name": "",
          "type": "bool"
        }
      ],
      "payable": false,
      "stateMutability": "view",
      "type": "function"
    },
    {
      "constant": true,
      "inputs": [],
      "name": "getNumPackages",
      "outputs": [
        {
          "name": "",
          "type": "uint256"
        }
      ],
      "payable": false,
      "stateMutability": "view",
      "type": "function"
    },
    {
      "constant": true,
      "inputs": [
        {
          "name": "idx",
          "type": "uint256"
        }
      ],
      "name": "getPackageNameHash",
      "outputs": [
        {
          "name": "",
          "type": "bytes32"
        }
      ],
      "payable": false,
      "stateMutability": "view",
      "type": "function"
    },
    {
      "constant": true,
      "inputs": [
        {
          "name": "nameHash",
          "type": "bytes32"
        }
      ],
      "name": "getPackageData",
      "outputs": [
        {
          "name": "packageOwner",
          "type": "address"
        },
        {
          "name": "createdAt",
          "type": "uint256"
        },
        {
          "name": "updatedAt",
          "type": "uint256"
        }
      ],
      "payable": false,
      "stateMutability": "view",
      "type": "function"
    },
    {
      "constant": true,
      "inputs": [
        {
          "name": "nameHash",
          "type": "bytes32"
        }
      ],
      "name": "getPackageName",
      "outputs": [
        {
          "name": "",
          "type": "string"
        }
      ],
      "payable": false,
      "stateMutability": "view",
      "type": "function"
    },
    {
      "constant": true,
      "inputs": [
        {
          "name": "_offset",
          "type": "uint256"
        },
        {
          "name": "limit",
          "type": "uint256"
        }
      ],
      "name": "getAllPackageIds",
      "outputs": [
        {
          "name": "packageIds",
          "type": "bytes32[]"
        },
        {
          "name": "offset",
          "type": "uint256"
        }
      ],
      "payable": false,
      "stateMutability": "view",
      "type": "function"
    },
    {
      "constant": true,
      "inputs": [
        {
          "name": "name",
          "type": "string"
        }
      ],
      "name": "hashName",
      "outputs": [
        {
          "name": "",
          "type": "bytes32"
        }
      ],
      "payable": false,
      "stateMutability": "pure",
      "type": "function"
    }
  ],
  "bytecode": "0x6080604081905260008054600160a060020a0319163317808255600160a060020a0316917f343765429aea5a34b3ff6a3785a98a5abb2597aca87bfbb58632c173d585373a908290a36111bb806100576000396000f3006080604052600436106100b55763ffffffff60e060020a6000350416621f8d1181146100ba57806306fe1fd71461012c578063083ae1fe146101b957806313af4035146102125780632406cedb1461023357806343212cf1146102575780637370a38d146102cd5780637a9e5e4b146102f45780638da5cb5b1461031557806395f0684b14610346578063a9b352401461035e578063af9a3f9b14610376578063b4d6d4c7146103cf578063bf7e214f1461040f575b600080fd5b3480156100c657600080fd5b5060408051602060046024803582810135601f81018590048502860185019096528585526101189583359536956044949193909101919081908401838280828437509497506104249650505050505050565b604080519115158252519081900360200190f35b34801561013857600080fd5b50610144600435610678565b6040805160208082528351818301528351919283929083019185019080838360005b8381101561017e578181015183820152602001610166565b50505050905090810190601f1680156101ab5780820380516001836020036101000a031916815260200191505b509250505060405180910390f35b3480156101c557600080fd5b506040805160206004803580820135601f81018490048402850184019095528484526101189436949293602493928401919081908401838280828437509497506107779650505050505050565b34801561021e57600080fd5b50610118600160a060020a036004351661090a565b34801561023f57600080fd5b50610118600435600160a060020a03602435166109d7565b34801561026357600080fd5b50610272600435602435610b2b565b6040518080602001838152602001828103825284818151815260200191508051906020019060200280838360005b838110156102b85781810151838201526020016102a0565b50505050905001935050505060405180910390f35b3480156102d957600080fd5b506102e2610bd8565b60408051918252519081900360200190f35b34801561030057600080fd5b50610118600160a060020a0360043516610c61565b34801561032157600080fd5b5061032a610d2d565b60408051600160a060020a039092168252519081900360200190f35b34801561035257600080fd5b506102e2600435610d3c565b34801561036a57600080fd5b50610118600435610dcd565b34801561038257600080fd5b506040805160206004803580820135601f81018490048402850184019095528484526102e2943694929360249392840191908190840183828082843750949750610de29650505050505050565b3480156103db57600080fd5b506103e7600435610eac565b60408051600160a060020a039094168452602084019290925282820152519081900360600190f35b34801561041b57600080fd5b5061032a610f44565b600061042e610f53565b1515610486576040805160e560020a62461bcd02815260206004820152602660248201526000805160206111708339815191526044820152600080516020611150833981519152606482015290519081900360840190fd5b8261049081610dcd565b15156104e2576040805160e560020a62461bcd0281526020600482015260226024820152600080516020611130833981519152604482015260f260020a611b9902606482015290519081900360840190fd5b604080516020808252855181830152855187937f188d63b2c009063a155fbcf0c8121b521638675d3d54561c1955bbec5b9ea6bb9388939092839283019185019080838360005b83811015610541578181015183820152602001610529565b50505050905090810190601f16801561056e5780820380516001836020036101000a031916815260200191505b509250505060405180910390a260008481526002602081905260408220805460ff1916815560018101839055908101829055906105ae6003830182611050565b506004908101805473ffffffffffffffffffffffffffffffffffffffff19169055604080517fed05c0c5000000000000000000000000000000000000000000000000000000008152600392810192909252602482018690525173__IndexedOrderedSetLib__________________9163ed05c0c5916044808301926020929190829003018186803b15801561064257600080fd5b505af4158015610656573d6000803e3d6000fd5b505050506040513d602081101561066c57600080fd5b50600195945050505050565b60608161068481610dcd565b15156106d6576040805160e560020a62461bcd0281526020600482015260226024820152600080516020611130833981519152604482015260f260020a611b9902606482015290519081900360840190fd5b600083815260026020818152604092839020600301805484516000196001831615610100020190911693909304601f810183900483028401830190945283835291929083018282801561076a5780601f1061073f5761010080835404028352916020019161076a565b820191906000526020600020905b81548152906001019060200180831161074d57829003601f168201915b5050505050915050919050565b6000806000610784610f53565b15156107dc576040805160e560020a62461bcd02815260206004820152602660248201526000805160206111708339815191526044820152600080516020611150833981519152606482015290519081900360840190fd5b6107e584610de2565b6000818152600260205260409020909250905061080182610dcd565b15156108f957805460ff1916600190811782554290820155835161082e9060038301906020870190611097565b50604080517f91d8a2840000000000000000000000000000000000000000000000000000000081526003600482015260248101849052905173__IndexedOrderedSetLib__________________916391d8a284916044808301926020929190829003018186803b1580156108a157600080fd5b505af41580156108b5573d6000803e3d6000fd5b505050506040513d60208110156108cb57600080fd5b505060405182907f94d68ac0a5dee0e8dd504e7e82e1fb1eb122682ceb9fc6aa6647f203fee26f1e90600090a25b426002820155600192505050919050565b6000610914610f53565b151561096c576040805160e560020a62461bcd02815260206004820152602660248201526000805160206111708339815191526044820152600080516020611150833981519152606482015290519081900360840190fd5b60008054604051600160a060020a03808616939216917f343765429aea5a34b3ff6a3785a98a5abb2597aca87bfbb58632c173d585373a91a35060008054600160a060020a03831673ffffffffffffffffffffffffffffffffffffffff199091161790556001919050565b60006109e1610f53565b1515610a39576040805160e560020a62461bcd02815260206004820152602660248201526000805160206111708339815191526044820152600080516020611150833981519152606482015290519081900360840190fd5b82610a4381610dcd565b1515610a95576040805160e560020a62461bcd0281526020600482015260226024820152600080516020611130833981519152604482015260f260020a611b9902606482015290519081900360840190fd5b600084815260026020526040808220600401549051600160a060020a038087169392169187917ffe2ec6b3a2236fea1f48069f386e0daac1b7b56b918998a3c3a28215946188179190a46000848152600260208190526040909120600481018054600160a060020a03871673ffffffffffffffffffffffffffffffffffffffff1990911617905542910155600191505092915050565b606060008184828080610b3c610bd8565b915081841015610bc957838203925087831115610b57578792505b82604051908082528060200260200182016040528015610b81578160200160208202803883390190505b5094505b6000831115610bc957610b9784610d3c565b9050808560018503815181101515610bab57fe5b60209081029091010152600193909301926000199290920191610b85565b50929791965090945050505050565b6000600373__IndexedOrderedSetLib__________________631aeaa50490916040518263ffffffff1660e060020a0281526004018082815260200191505060206040518083038186803b158015610c2f57600080fd5b505af4158015610c43573d6000803e3d6000fd5b505050506040513d6020811015610c5957600080fd5b505190505b90565b6000610c6b610f53565b1515610cc3576040805160e560020a62461bcd02815260206004820152602660248201526000805160206111708339815191526044820152600080516020611150833981519152606482015290519081900360840190fd5b600154604051600160a060020a038085169216907fa1d9e0b26ffdd95159e4605308c755be7b756e3e5dd5c5756b4c77f644a5236490600090a35060018054600160a060020a03831673ffffffffffffffffffffffffffffffffffffffff19909116178155919050565b600054600160a060020a031681565b6000600373__IndexedOrderedSetLib__________________6377e91da19091846040518363ffffffff1660e060020a028152600401808381526020018281526020019250505060206040518083038186803b158015610d9b57600080fd5b505af4158015610daf573d6000803e3d6000fd5b505050506040513d6020811015610dc557600080fd5b505192915050565b60009081526002602052604090205460ff1690565b6000816040516020018082805190602001908083835b60208310610e175780518252601f199092019160209182019101610df8565b6001836020036101000a0380198251168184511680821785525050505050509050019150506040516020818303038152906040526040518082805190602001908083835b60208310610e7a5780518252601f199092019160209182019101610e5b565b5181516020939093036101000a6000190180199091169216919091179052604051920182900390912095945050505050565b60008060008084610ebc81610dcd565b1515610f0e576040805160e560020a62461bcd0281526020600482015260226024820152600080516020611130833981519152604482015260f260020a611b9902606482015290519081900360840190fd5b50505060009283525050600260208190526040909120600481015460018201549190920154600160a060020a0390921692909190565b600154600160a060020a031681565b60008054600160a060020a0316331415610f6f57506001610c5e565b600154600160a060020a03161515610f8957506000610c5e565b600154604080517fb70096130000000000000000000000000000000000000000000000000000000081523360048201523060248201527fffffffff000000000000000000000000000000000000000000000000000000006000351660448201529051600160a060020a039092169163b700961391606480820192602092909190829003018186803b15801561101d57600080fd5b505afa158015611031573d6000803e3d6000fd5b505050506040513d602081101561104757600080fd5b50519050610c5e565b50805460018160011615610100020316600290046000825580601f106110765750611094565b601f0160209004906000526020600020908101906110949190611115565b50565b828054600181600116156101000203166002900490600052602060002090601f016020900481019282601f106110d857805160ff1916838001178555611105565b82800160010185558215611105579182015b828111156111055782518255916020019190600101906110ea565b50611111929150611115565b5090565b610c5e91905b80821115611111576000815560010161111b56006573636170653a5061636b61676544423a7061636b6167652d6e6f742d666f756f72697a656400000000000000000000000000000000000000000000000000006573636170653a417574686f726974793a63616c6c65722d6e6f742d61757468a165627a7a7230582075947af3827a5e0bcd2dabaa0fc81c87123c02d3123120556b7e3ddb3d490f630029",
  "source": "pragma solidity ^0.4.24;\npragma experimental \"v0.5.0\";\n\nimport {IndexedOrderedSetLib} from \"./IndexedOrderedSetLib.sol\";\nimport {Authorized} from \"./Authority.sol\";\n\n\n/// @title Database contract for a package index package data.\n/// @author Tim Coulter <tim.coulter@consensys.net>, Piper Merriam <pipermerriam@gmail.com>\ncontract PackageDB is Authorized {\n  using IndexedOrderedSetLib for IndexedOrderedSetLib.IndexedOrderedSet;\n\n  struct Package {\n    bool exists;\n    uint createdAt;\n    uint updatedAt;\n    string name;\n    address owner;\n  }\n\n  // Package Data: (nameHash => value)\n  mapping (bytes32 => Package) _recordedPackages;\n  IndexedOrderedSetLib.IndexedOrderedSet _allPackageNameHashes;\n\n  // Events\n  event PackageReleaseAdd(bytes32 indexed nameHash, bytes32 indexed releaseHash);\n  event PackageReleaseRemove(bytes32 indexed nameHash, bytes32 indexed releaseHash);\n  event PackageCreate(bytes32 indexed nameHash);\n  event PackageDelete(bytes32 indexed nameHash, string reason);\n  event PackageOwnerUpdate(bytes32 indexed nameHash, address indexed oldOwner, address indexed newOwner);\n\n  /*\n   *  Modifiers\n   */\n  modifier onlyIfPackageExists(bytes32 nameHash) {\n    require(packageExists(nameHash), \"escape:PackageDB:package-not-found\");\n    _;\n  }\n\n  //\n  //  +-------------+\n  //  |  Write API  |\n  //  +-------------+\n  //\n\n  /// @dev Creates or updates a release for a package.  Returns success.\n  /// @param name Package name\n  function setPackage(string name)\n    public\n    auth\n    returns (bool)\n  {\n    // Hash the name and the version for storing data\n    bytes32 nameHash = hashName(name);\n\n    Package storage package = _recordedPackages[nameHash];\n\n    // Mark the package as existing if it isn't already tracked.\n    if (!packageExists(nameHash)) {\n\n      // Set package data\n      package.exists = true;\n      package.createdAt = block.timestamp; // solium-disable-line security/no-block-members\n      package.name = name;\n\n      // Add the nameHash to the list of all package nameHashes.\n      _allPackageNameHashes.add(nameHash);\n\n      emit PackageCreate(nameHash);\n    }\n\n    package.updatedAt = block.timestamp; // solium-disable-line security/no-block-members\n\n    return true;\n  }\n\n  /// @dev Removes a package from the package db.  Packages with existing releases may not be removed.  Returns success.\n  /// @param nameHash The name hash of a package.\n  function removePackage(bytes32 nameHash, string reason)\n    public\n    auth\n    onlyIfPackageExists(nameHash)\n    returns (bool)\n  {\n    emit PackageDelete(nameHash, reason);\n\n    delete _recordedPackages[nameHash];\n    _allPackageNameHashes.remove(nameHash);\n\n    return true;\n  }\n\n  /// @dev Sets the owner of a package to the provided address.  Returns success.\n  /// @param nameHash The name hash of a package.\n  /// @param newPackageOwner The address of the new owner.\n  function setPackageOwner(bytes32 nameHash, address newPackageOwner)\n    public\n    auth\n    onlyIfPackageExists(nameHash)\n    returns (bool)\n  {\n    emit PackageOwnerUpdate(nameHash, _recordedPackages[nameHash].owner, newPackageOwner);\n\n    _recordedPackages[nameHash].owner = newPackageOwner;\n    _recordedPackages[nameHash].updatedAt = block.timestamp; // solium-disable-line security/no-block-members\n\n    return true;\n  }\n\n  //\n  //  +------------+\n  //  |  Read API  |\n  //  +------------+\n  //\n\n  /// @dev Query the existence of a package with the given name.  Returns boolean indicating whether the package exists.\n  /// @param nameHash The name hash of a package.\n  function packageExists(bytes32 nameHash)\n    public\n    view\n    returns (bool)\n  {\n    return _recordedPackages[nameHash].exists;\n  }\n\n  /// @dev Return the total number of packages\n  function getNumPackages()\n    public\n    view\n    returns (uint)\n  {\n    return _allPackageNameHashes.size();\n  }\n\n  /// @dev Returns package namehash at the provided index from the set of all known name hashes.\n  /// @param idx The index of the package name hash to retrieve.\n  function getPackageNameHash(uint idx)\n    public\n    view\n    returns (bytes32)\n  {\n    return _allPackageNameHashes.get(idx);\n  }\n\n  /// @dev Returns information about the package.\n  /// @param nameHash The name hash to look up.\n  function getPackageData(bytes32 nameHash)\n    public\n    view\n    onlyIfPackageExists(nameHash)\n    returns (\n      address packageOwner,\n      uint createdAt,\n      uint updatedAt\n    )\n  {\n    Package storage package = _recordedPackages[nameHash];\n    return (package.owner, package.createdAt, package.updatedAt);\n  }\n\n  /// @dev Returns the package name for the given namehash\n  /// @param nameHash The name hash to look up.\n  function getPackageName(bytes32 nameHash)\n    public\n    view\n    onlyIfPackageExists(nameHash)\n    returns (string)\n  {\n    return _recordedPackages[nameHash].name;\n  }\n\n  /// @dev Returns a slice of the array of all package hashes for the named package.\n  /// @param offset The starting index for the slice.\n  /// @param limit  The length of the slice\n  function getAllPackageIds(uint _offset, uint limit)\n    public\n    view\n    returns (\n      bytes32[] packageIds,\n      uint offset\n    )\n  {\n    bytes32[] memory hashes;                 // Array of package ids to return\n    uint cursor = _offset;                   // Index counter to traverse DB array\n    uint remaining;                          // Counter to collect `limit` packages\n    uint totalPackages = getNumPackages();   // Total number of packages in registry\n\n    // Is request within range?\n    if (cursor < totalPackages){\n\n      // Get total remaining records\n      remaining = totalPackages - cursor;\n\n      // Number of records to collect is lesser of `remaining` and `limit`\n      if (remaining > limit ){\n        remaining = limit;\n      }\n\n      // Allocate return array\n      hashes = new bytes32[](remaining);\n\n      // Collect records. (IndexedOrderedSet manages deletions.)\n      while(remaining > 0){\n        bytes32 hash = getPackageNameHash(cursor);\n        hashes[remaining - 1] = hash;\n        remaining--;\n        cursor++;\n      }\n    }\n    return (hashes, cursor);\n  }\n\n  /*\n   *  Hash Functions\n   */\n  /// @dev Returns name hash for a given package name.\n  /// @param name Package name\n  function hashName(string name)\n    public\n    pure\n    returns (bytes32)\n  {\n    return keccak256(abi.encodePacked(name));\n  }\n}\n",
  "sourcePath": "/Users/markomarinovic/Projects/Personal/devcon4/workshop-ether-package-manager/escape-truffle/contracts/PackageDB.sol",
  "compiler": {
    "name": "solc",
    "version": "0.4.24+commit.e67f0147.Emscripten.clang"
  },
  "schemaVersion": "2.0.1",
  "updatedAt": "2018-11-01T12:27:35.533Z"
}