{
  "contractName": "ReleaseDB",
  "abi": [
    {
      "constant": false,
      "inputs": [
        {
          "name": "newOwner",
          "type": "address"
        }
      ],
      "name": "setOwner",
      "outputs": [
        {
          "name": "",
          "type": "bool"
        }
      ],
      "payable": false,
      "stateMutability": "nonpayable",
      "type": "function"
    },
    {
      "constant": false,
      "inputs": [
        {
          "name": "newAuthority",
          "type": "address"
        }
      ],
      "name": "setAuthority",
      "outputs": [
        {
          "name": "",
          "type": "bool"
        }
      ],
      "payable": false,
      "stateMutability": "nonpayable",
      "type": "function"
    },
    {
      "constant": true,
      "inputs": [],
      "name": "owner",
      "outputs": [
        {
          "name": "",
          "type": "address"
        }
      ],
      "payable": false,
      "stateMutability": "view",
      "type": "function"
    },
    {
      "constant": true,
      "inputs": [],
      "name": "authority",
      "outputs": [
        {
          "name": "",
          "type": "address"
        }
      ],
      "payable": false,
      "stateMutability": "view",
      "type": "function"
    },
    {
      "anonymous": false,
      "inputs": [
        {
          "indexed": true,
          "name": "releaseId",
          "type": "bytes32"
        }
      ],
      "name": "ReleaseCreate",
      "type": "event"
    },
    {
      "anonymous": false,
      "inputs": [
        {
          "indexed": true,
          "name": "releaseId",
          "type": "bytes32"
        }
      ],
      "name": "ReleaseUpdate",
      "type": "event"
    },
    {
      "anonymous": false,
      "inputs": [
        {
          "indexed": true,
          "name": "releaseId",
          "type": "bytes32"
        },
        {
          "indexed": false,
          "name": "reason",
          "type": "string"
        }
      ],
      "name": "ReleaseDelete",
      "type": "event"
    },
    {
      "anonymous": false,
      "inputs": [
        {
          "indexed": true,
          "name": "oldOwner",
          "type": "address"
        },
        {
          "indexed": true,
          "name": "newOwner",
          "type": "address"
        }
      ],
      "name": "OwnerUpdate",
      "type": "event"
    },
    {
      "anonymous": false,
      "inputs": [
        {
          "indexed": true,
          "name": "oldAuthority",
          "type": "address"
        },
        {
          "indexed": true,
          "name": "newAuthority",
          "type": "address"
        }
      ],
      "name": "AuthorityUpdate",
      "type": "event"
    },
    {
      "constant": false,
      "inputs": [
        {
          "name": "nameHash",
          "type": "bytes32"
        },
        {
          "name": "versionHash",
          "type": "bytes32"
        },
        {
          "name": "manifestURI",
          "type": "string"
        }
      ],
      "name": "setRelease",
      "outputs": [
        {
          "name": "",
          "type": "bool"
        }
      ],
      "payable": false,
      "stateMutability": "nonpayable",
      "type": "function"
    },
    {
      "constant": false,
      "inputs": [
        {
          "name": "releaseId",
          "type": "bytes32"
        },
        {
          "name": "reason",
          "type": "string"
        }
      ],
      "name": "removeRelease",
      "outputs": [
        {
          "name": "",
          "type": "bool"
        }
      ],
      "payable": false,
      "stateMutability": "nonpayable",
      "type": "function"
    },
    {
      "constant": false,
      "inputs": [
        {
          "name": "version",
          "type": "string"
        }
      ],
      "name": "setVersion",
      "outputs": [
        {
          "name": "",
          "type": "bytes32"
        }
      ],
      "payable": false,
      "stateMutability": "nonpayable",
      "type": "function"
    },
    {
      "constant": true,
      "inputs": [
        {
          "name": "nameHash",
          "type": "bytes32"
        },
        {
          "name": "_offset",
          "type": "uint256"
        },
        {
          "name": "limit",
          "type": "uint256"
        }
      ],
      "name": "getAllReleaseIds",
      "outputs": [
        {
          "name": "releaseIds",
          "type": "bytes32[]"
        },
        {
          "name": "offset",
          "type": "uint256"
        }
      ],
      "payable": false,
      "stateMutability": "view",
      "type": "function"
    },
    {
      "constant": true,
      "inputs": [
        {
          "name": "nameHash",
          "type": "bytes32"
        }
      ],
      "name": "getNumReleasesForNameHash",
      "outputs": [
        {
          "name": "",
          "type": "uint256"
        }
      ],
      "payable": false,
      "stateMutability": "view",
      "type": "function"
    },
    {
      "constant": true,
      "inputs": [
        {
          "name": "nameHash",
          "type": "bytes32"
        },
        {
          "name": "idx",
          "type": "uint256"
        }
      ],
      "name": "getReleaseIdForNameHash",
      "outputs": [
        {
          "name": "",
          "type": "bytes32"
        }
      ],
      "payable": false,
      "stateMutability": "view",
      "type": "function"
    },
    {
      "constant": true,
      "inputs": [
        {
          "name": "releaseId",
          "type": "bytes32"
        }
      ],
      "name": "releaseExists",
      "outputs": [
        {
          "name": "",
          "type": "bool"
        }
      ],
      "payable": false,
      "stateMutability": "view",
      "type": "function"
    },
    {
      "constant": true,
      "inputs": [
        {
          "name": "releaseHash",
          "type": "bytes32"
        }
      ],
      "name": "releaseExisted",
      "outputs": [
        {
          "name": "",
          "type": "bool"
        }
      ],
      "payable": false,
      "stateMutability": "view",
      "type": "function"
    },
    {
      "constant": true,
      "inputs": [
        {
          "name": "versionHash",
          "type": "bytes32"
        }
      ],
      "name": "versionExists",
      "outputs": [
        {
          "name": "",
          "type": "bool"
        }
      ],
      "payable": false,
      "stateMutability": "view",
      "type": "function"
    },
    {
      "constant": true,
      "inputs": [
        {
          "name": "releaseId",
          "type": "bytes32"
        }
      ],
      "name": "getReleaseData",
      "outputs": [
        {
          "name": "nameHash",
          "type": "bytes32"
        },
        {
          "name": "versionHash",
          "type": "bytes32"
        },
        {
          "name": "createdAt",
          "type": "uint256"
        },
        {
          "name": "updatedAt",
          "type": "uint256"
        }
      ],
      "payable": false,
      "stateMutability": "view",
      "type": "function"
    },
    {
      "constant": true,
      "inputs": [
        {
          "name": "versionHash",
          "type": "bytes32"
        }
      ],
      "name": "getVersion",
      "outputs": [
        {
          "name": "",
          "type": "string"
        }
      ],
      "payable": false,
      "stateMutability": "view",
      "type": "function"
    },
    {
      "constant": true,
      "inputs": [
        {
          "name": "releaseId",
          "type": "bytes32"
        }
      ],
      "name": "getManifestURI",
      "outputs": [
        {
          "name": "",
          "type": "string"
        }
      ],
      "payable": false,
      "stateMutability": "view",
      "type": "function"
    },
    {
      "constant": true,
      "inputs": [
        {
          "name": "version",
          "type": "string"
        }
      ],
      "name": "hashVersion",
      "outputs": [
        {
          "name": "",
          "type": "bytes32"
        }
      ],
      "payable": false,
      "stateMutability": "pure",
      "type": "function"
    },
    {
      "constant": true,
      "inputs": [
        {
          "name": "nameHash",
          "type": "bytes32"
        },
        {
          "name": "versionHash",
          "type": "bytes32"
        }
      ],
      "name": "hashRelease",
      "outputs": [
        {
          "name": "",
          "type": "bytes32"
        }
      ],
      "payable": false,
      "stateMutability": "pure",
      "type": "function"
    }
  ],
  "bytecode": "0x6080604081905260008054600160a060020a0319163317808255600160a060020a0316917f343765429aea5a34b3ff6a3785a98a5abb2597aca87bfbb58632c173d585373a908290a36115bd806100576000396000f3006080604052600436106100fb5763ffffffff7c010000000000000000000000000000000000000000000000000000000060003504166313af40358114610100578063173cb7de146101355780631a2b3f621461015f578063244fcd03146101b85780633f415772146102165780634c4aea871461022e578063788bc78c1461026c5780637a9e5e4b146102c55780638b859409146102e65780638da5cb5b1461034657806393d79105146103775780639aaf9f0814610392578063bb814e9e1461041f578063bf7e214f14610437578063ceef4a121461044c578063cf6a4d5914610464578063d672640d1461047f578063fa6bf4da14610497575b600080fd5b34801561010c57600080fd5b50610121600160a060020a0360043516610510565b604080519115158252519081900360200190f35b34801561014157600080fd5b5061014d6004356105dd565b60408051918252519081900360200190f35b34801561016b57600080fd5b506040805160206004803580820135601f810184900484028501840190955284845261014d9436949293602493928401919081908401838280828437509497506106869650505050505050565b3480156101c457600080fd5b5060408051602060046024803582810135601f81018590048502860185019096528585526101219583359536956044949193909101919081908401838280828437509497506107509650505050505050565b34801561022257600080fd5b50610121600435610a94565b34801561023a57600080fd5b50610246600435610aa9565b604080519485526020850193909352838301919091526060830152519081900360800190f35b34801561027857600080fd5b506040805160206004803580820135601f810184900484028501840190955284845261014d943694929360249392840191908190840183828082843750949750610b519650505050505050565b3480156102d157600080fd5b50610121600160a060020a0360043516610c18565b3480156102f257600080fd5b50604080516020600460443581810135601f8101849004840285018401909552848452610121948235946024803595369594606494920191908190840183828082843750949750610ce49650505050505050565b34801561035257600080fd5b5061035b610f5e565b60408051600160a060020a039092168252519081900360200190f35b34801561038357600080fd5b5061014d600435602435610f6d565b34801561039e57600080fd5b506103aa600435610ff3565b6040805160208082528351818301528351919283929083019185019080838360005b838110156103e45781810151838201526020016103cc565b50505050905090810190601f1680156104115780820380516001836020036101000a031916815260200191505b509250505060405180910390f35b34801561042b57600080fd5b50610121600435611103565b34801561044357600080fd5b5061035b611118565b34801561045857600080fd5b50610121600435611127565b34801561047057600080fd5b5061014d60043560243561113c565b34801561048b57600080fd5b506103aa6004356111ed565b3480156104a357600080fd5b506104b56004356024356044356112c6565b6040518080602001838152602001828103825284818151815260200191508051906020019060200280838360005b838110156104fb5781810151838201526020016104e3565b50505050905001935050505060405180910390f35b600061051a611376565b1515610572576040805160e560020a62461bcd02815260206004820152602660248201526000805160206115728339815191526044820152600080516020611552833981519152606482015290519081900360840190fd5b60008054604051600160a060020a03808616939216917f343765429aea5a34b3ff6a3785a98a5abb2597aca87bfbb58632c173d585373a91a35060008054600160a060020a03831673ffffffffffffffffffffffffffffffffffffffff199091161790556001919050565b600081815260076020908152604080832081517f1aeaa5040000000000000000000000000000000000000000000000000000000081526004810191909152905173__IndexedOrderedSetLib__________________92631aeaa5049260248082019391829003018186803b15801561065457600080fd5b505af4158015610668573d6000803e3d6000fd5b505050506040513d602081101561067e57600080fd5b505192915050565b6000816040516020018082805190602001908083835b602083106106bb5780518252601f19909201916020918201910161069c565b6001836020036101000a0380198251168184511680821785525050505050509050019150506040516020818303038152906040526040518082805190602001908083835b6020831061071e5780518252601f1990920191602091820191016106ff565b5181516020939093036101000a6000190180199091169216919091179052604051920182900390912095945050505050565b600080600061075d611376565b15156107b5576040805160e560020a62461bcd02815260206004820152602660248201526000805160206115728339815191526044820152600080516020611552833981519152606482015290519081900360840190fd5b846107bf81610a94565b1515610823576040805160e560020a62461bcd02815260206004820152602260248201527f6573636170653a52656c6561736544423a72656c656173652d6e6f742d666f75604482015260f260020a611b9902606482015290519081900360840190fd5b61082c86610aa9565b505060008881526002602081905260408220805460ff191681556001810183905590810182905560038101829055600481018290559295509093506108746005830182611472565b5050600082815260086020526040812061088d91611472565b604080517fed05c0c500000000000000000000000000000000000000000000000000000000815260048181015260248101889052905173__IndexedOrderedSetLib__________________9163ed05c0c5916044808301926020929190829003018186803b1580156108fe57600080fd5b505af4158015610912573d6000803e3d6000fd5b505050506040513d602081101561092857600080fd5b505060008381526007602090815260409182902082517fed05c0c5000000000000000000000000000000000000000000000000000000008152600481019190915260248101899052915173__IndexedOrderedSetLib__________________9263ed05c0c5926044808301939192829003018186803b1580156109aa57600080fd5b505af41580156109be573d6000803e3d6000fd5b505050506040513d60208110156109d457600080fd5b50506000868152600360209081526040808320805460ff19166001179055805182815288518184015288518a947f72f61f9276232f7592082903bb275df873e35580890da43e4ff3338f8bcccca6948b94849390840192918601918190849084905b83811015610a4e578181015183820152602001610a36565b50505050905090810190601f168015610a7b5780820380516001836020036101000a031916815260200191505b509250505060405180910390a250600195945050505050565b60009081526002602052604090205460ff1690565b600080600080600085610abb81610a94565b1515610b1f576040805160e560020a62461bcd02815260206004820152602260248201527f6573636170653a52656c6561736544423a72656c656173652d6e6f742d666f75604482015260f260020a611b9902606482015290519081900360840190fd5b505050600093845250506002602081905260409092206003810154600482015460018301549290940154909491925090565b600080610b5c611376565b1515610bb4576040805160e560020a62461bcd02815260206004820152602660248201526000805160206115728339815191526044820152600080516020611552833981519152606482015290519081900360840190fd5b610bbd83610686565b60008181526009602052604090205490915060ff161515610c125760008181526008602090815260409091208451610bf7928601906114b9565b506000818152600960205260409020805460ff191660011790555b92915050565b6000610c22611376565b1515610c7a576040805160e560020a62461bcd02815260206004820152602660248201526000805160206115728339815191526044820152600080516020611552833981519152606482015290519081900360840190fd5b600154604051600160a060020a038085169216907fa1d9e0b26ffdd95159e4605308c755be7b756e3e5dd5c5756b4c77f644a5236490600090a35060018054600160a060020a03831673ffffffffffffffffffffffffffffffffffffffff19909116178155919050565b6000806000610cf1611376565b1515610d49576040805160e560020a62461bcd02815260206004820152602660248201526000805160206115728339815191526044820152600080516020611552833981519152606482015290519081900360840190fd5b610d538686610f6d565b60008181526002602052604090208054919350915060ff1615610da05760405182907f421b70585c97d607687082e6736e0da3fc5c2c2ac156dfbe444cf54729d5e02d90600090a2610f36565b805460ff1916600190811782554290820155600381018690556004808201869055604080517f91d8a28400000000000000000000000000000000000000000000000000000000815280830192909252602482018490525173__IndexedOrderedSetLib__________________916391d8a284916044808301926020929190829003018186803b158015610e3257600080fd5b505af4158015610e46573d6000803e3d6000fd5b505050506040513d6020811015610e5c57600080fd5b505060008681526007602090815260409182902082517f91d8a284000000000000000000000000000000000000000000000000000000008152600481019190915260248101859052915173__IndexedOrderedSetLib__________________926391d8a284926044808301939192829003018186803b158015610ede57600080fd5b505af4158015610ef2573d6000803e3d6000fd5b505050506040513d6020811015610f0857600080fd5b505060405182907feb3a047e740f5b7dd241cb3412aed51d713354a030f7966fe818d2bf9691b5fc90600090a25b4260028201558351610f5190600583019060208701906114b9565b5060019695505050505050565b600054600160a060020a031681565b6040805160208082018590528183018490528251808303840181526060909201928390528151600093918291908401908083835b60208310610fc05780518252601f199092019160209182019101610fa1565b5181516020939093036101000a600019018019909116921691909117905260405192018290039091209695505050505050565b606081610fff81611103565b1515611063576040805160e560020a62461bcd02815260206004820152602260248201527f6573636170653a52656c6561736544423a76657273696f6e2d6e6f742d666f75604482015260f260020a611b9902606482015290519081900360840190fd5b60008381526008602090815260409182902080548351601f6002610100600185161502600019019093169290920491820184900484028101840190945280845290918301828280156110f65780601f106110cb576101008083540402835291602001916110f6565b820191906000526020600020905b8154815290600101906020018083116110d957829003601f168201915b5050505050915050919050565b60009081526009602052604090205460ff1690565b600154600160a060020a031681565b60009081526003602052604090205460ff1690565b600082815260076020908152604080832081517f77e91da1000000000000000000000000000000000000000000000000000000008152600481019190915260248101859052905173__IndexedOrderedSetLib__________________926377e91da19260448082019391829003018186803b1580156111ba57600080fd5b505af41580156111ce573d6000803e3d6000fd5b505050506040513d60208110156111e457600080fd5b50519392505050565b6060816111f981610a94565b151561125d576040805160e560020a62461bcd02815260206004820152602260248201527f6573636170653a52656c6561736544423a72656c656173652d6e6f742d666f75604482015260f260020a611b9902606482015290519081900360840190fd5b600083815260026020818152604092839020600501805484516000196001831615610100020190911693909304601f81018390048302840183019094528383529192908301828280156110f65780601f106110cb576101008083540402835291602001916110f6565b6060600081848280806112d88a6105dd565b915081841015611366578382039250878311156112f3578792505b8260405190808252806020026020018201604052801561131d578160200160208202803883390190505b5094505b6000831115611366576113348a8561113c565b905080856001850381518110151561134857fe5b60209081029091010152600193909301926000199290920191611321565b5092989197509095505050505050565b60008054600160a060020a03163314156113925750600161146f565b600154600160a060020a031615156113ac5750600061146f565b600154604080517fb70096130000000000000000000000000000000000000000000000000000000081523360048201523060248201527fffffffff000000000000000000000000000000000000000000000000000000006000351660448201529051600160a060020a039092169163b700961391606480820192602092909190829003018186803b15801561144057600080fd5b505afa158015611454573d6000803e3d6000fd5b505050506040513d602081101561146a57600080fd5b505190505b90565b50805460018160011615610100020316600290046000825580601f1061149857506114b6565b601f0160209004906000526020600020908101906114b69190611537565b50565b828054600181600116156101000203166002900490600052602060002090601f016020900481019282601f106114fa57805160ff1916838001178555611527565b82800160010185558215611527579182015b8281111561152757825182559160200191906001019061150c565b50611533929150611537565b5090565b61146f91905b80821115611533576000815560010161153d56006f72697a656400000000000000000000000000000000000000000000000000006573636170653a417574686f726974793a63616c6c65722d6e6f742d61757468a165627a7a723058209580afc9a6936d55bf1f3353def0d3020714a5f6c4105801264a1a2f762269a90029",
  "source": "pragma solidity ^0.4.24;\npragma experimental \"v0.5.0\";\n\n\nimport {IndexedOrderedSetLib} from \"./IndexedOrderedSetLib.sol\";\nimport {Authorized} from \"./Authority.sol\";\n\n\n/// @title Database contract for a package index.\n/// @author Tim Coulter <tim.coulter@consensys.net>, Piper Merriam <pipermerriam@gmail.com>\ncontract ReleaseDB is Authorized {\n  using IndexedOrderedSetLib for IndexedOrderedSetLib.IndexedOrderedSet;\n\n  struct Release {\n    bool exists;\n    uint createdAt;\n    uint updatedAt;\n    bytes32 nameHash;\n    bytes32 versionHash;\n    string manifestURI;\n  }\n\n  // Release Data: (releaseId => value)\n  mapping (bytes32 => Release) _recordedReleases;\n  mapping (bytes32 => bool) _removedReleases;\n  IndexedOrderedSetLib.IndexedOrderedSet _allReleaseIds;\n  mapping (bytes32 => IndexedOrderedSetLib.IndexedOrderedSet) _releaseIdsByNameHash;\n\n  // Version Data: (versionHash => value)\n  mapping (bytes32 => string) _recordedVersions;\n  mapping (bytes32 => bool) _versionExists;\n\n  // Events\n  event ReleaseCreate(bytes32 indexed releaseId);\n  event ReleaseUpdate(bytes32 indexed releaseId);\n  event ReleaseDelete(bytes32 indexed releaseId, string reason);\n\n  /*\n   *  Modifiers\n   */\n  modifier onlyIfVersionExists(bytes32 versionHash) {\n    require(versionExists(versionHash), \"escape:ReleaseDB:version-not-found\");\n    _;\n  }\n\n  modifier onlyIfReleaseExists(bytes32 releaseId) {\n    require(releaseExists(releaseId), \"escape:ReleaseDB:release-not-found\");\n    _;\n  }\n\n  //\n  // +-------------+\n  // |  Write API  |\n  // +-------------+\n  //\n\n  /// @dev Creates or updates a release for a package.  Returns success.\n  /// @param nameHash The name hash of the package.\n  /// @param versionHash The version hash for the release version.\n  /// @param manifestURI The URI for the release manifest for this release.\n  function setRelease(\n    bytes32 nameHash,\n    bytes32 versionHash,\n    string manifestURI\n  )\n    public\n    auth\n    returns (bool)\n  {\n    bytes32 releaseId = hashRelease(nameHash, versionHash);\n\n    Release storage release = _recordedReleases[releaseId];\n\n    // If this is a new version push it onto the array of version hashes for\n    // this package.\n    if (release.exists) {\n      emit ReleaseUpdate(releaseId);\n    } else {\n      // Populate the basic release data.\n      release.exists = true;\n      release.createdAt = block.timestamp; // solium-disable-line security/no-block-members\n      release.nameHash = nameHash;\n      release.versionHash = versionHash;\n\n      // Push the release hash into the array of all release hashes.\n      _allReleaseIds.add(releaseId);\n      _releaseIdsByNameHash[nameHash].add(releaseId);\n\n      emit ReleaseCreate(releaseId);\n    }\n\n    // Record the last time the release was updated.\n    release.updatedAt = block.timestamp; // solium-disable-line security/no-block-members\n\n    // Save the release manifest URI\n    release.manifestURI = manifestURI;\n\n    return true;\n  }\n\n  /// @dev Removes a release from a package.  Returns success.\n  /// @param releaseId The release hash to be removed\n  /// @param reason Explanation for why the removal happened.\n  function removeRelease(bytes32 releaseId, string reason)\n    public\n    auth\n    onlyIfReleaseExists(releaseId)\n    returns (bool)\n  {\n    bytes32 nameHash;\n    bytes32 versionHash;\n\n    (nameHash, versionHash,,) = getReleaseData(releaseId);\n\n    // Zero out the release data.\n    delete _recordedReleases[releaseId];\n    delete _recordedVersions[versionHash];\n\n    // Remove the release hash from the list of all release hashes\n    _allReleaseIds.remove(releaseId);\n    _releaseIdsByNameHash[nameHash].remove(releaseId);\n\n    // Add the release hash to the map of removed releases\n    _removedReleases[releaseId] = true;\n\n    // Log the removal.\n    emit ReleaseDelete(releaseId, reason);\n\n    return true;\n  }\n\n\n  /// @dev Adds the given version to the local version database.  Returns the versionHash for the provided version.\n  /// @param version Version string (ex: '1.0.0')\n  function setVersion(string version)\n    public\n    auth\n    returns (bytes32)\n  {\n    bytes32 versionHash = hashVersion(version);\n\n    if (!_versionExists[versionHash]) {\n      _recordedVersions[versionHash] = version;\n      _versionExists[versionHash] = true;\n    }\n    return versionHash;\n  }\n\n  //\n  // +------------+\n  // |  Read API  |\n  // +------------+\n  //\n\n  /// @dev Returns a slice of the array of all releases hashes for the named package.\n  /// @param offset The starting index for the slice.\n  /// @param limit  The length of the slice\n  function getAllReleaseIds(bytes32 nameHash, uint _offset, uint limit)\n    public\n    view\n    returns (\n      bytes32[] releaseIds,\n      uint offset\n    )\n  {\n    bytes32[] memory hashes;                                  // Release ids to return\n    uint cursor = _offset;                                    // Index counter to traverse DB array\n    uint remaining;                                           // Counter to collect `limit` packages\n    uint totalReleases = getNumReleasesForNameHash(nameHash); // Total number of packages in registry\n\n    // Is request within range?\n    if (cursor < totalReleases){\n\n      // Get total remaining records\n      remaining = totalReleases - cursor;\n\n      // Number of records to collect is lesser of `remaining` and `limit`\n      if (remaining > limit ){\n        remaining = limit;\n      }\n\n      // Allocate return array\n      hashes = new bytes32[](remaining);\n\n      // Collect records. (IndexedOrderedSet manages deletions.)\n      while(remaining > 0){\n        bytes32 hash = getReleaseIdForNameHash(nameHash, cursor);\n        hashes[remaining - 1] = hash;\n        remaining--;\n        cursor++;\n      }\n    }\n    return (hashes, cursor);\n  }\n\n  /// @dev Get the total number of releases\n  /// @param nameHash the name hash to lookup.\n  function getNumReleasesForNameHash(bytes32 nameHash)\n    public\n    view\n    returns (uint)\n  {\n    return _releaseIdsByNameHash[nameHash].size();\n  }\n\n  /// @dev Release hash for a Package at a given index\n  /// @param nameHash the name hash to lookup.\n  /// @param idx The index of the release hash to retrieve.\n  function getReleaseIdForNameHash(bytes32 nameHash, uint idx)\n    public\n    view\n    returns (bytes32)\n  {\n    return _releaseIdsByNameHash[nameHash].get(idx);\n  }\n\n  /// @dev Query the existence of a release at the provided version for a package.  Returns boolean indicating whether such a release exists.\n  /// @param releaseId The release hash to query.\n  function releaseExists(bytes32 releaseId)\n    public\n    view\n    returns (bool)\n  {\n    return _recordedReleases[releaseId].exists;\n  }\n\n  /// @dev Query the past existence of a release at the provided version for a package.  Returns boolean indicating whether such a release ever existed.\n  /// @param releaseHash The release hash to query.\n  function releaseExisted(bytes32 releaseHash)\n    public\n    view\n    returns (bool)\n  {\n    return _removedReleases[releaseHash];\n  }\n\n  /// @dev Query the existence of the provided version in the recorded versions.  Returns boolean indicating whether such a version exists.\n  /// @param versionHash the version hash to check.\n  function versionExists(bytes32 versionHash)\n    public\n    view\n    returns (bool)\n  {\n    return _versionExists[versionHash];\n  }\n\n  /// @dev Returns the releaseData for the given release has a package.\n  /// @param releaseId The release hash.\n  function getReleaseData(bytes32 releaseId)\n    public\n    view\n    onlyIfReleaseExists(releaseId)\n    returns (\n      bytes32 nameHash,\n      bytes32 versionHash,\n      uint createdAt,\n      uint updatedAt\n    )\n  {\n    Release storage release = _recordedReleases[releaseId];\n    return (release.nameHash, release.versionHash, release.createdAt, release.updatedAt);\n  }\n\n  /// @dev Returns string version identifier from the version of the given release hash.\n  /// @param versionHash the version hash\n  function getVersion(bytes32 versionHash)\n    public\n    view\n    onlyIfVersionExists(versionHash)\n    returns (string)\n  {\n    return _recordedVersions[versionHash];\n  }\n\n  /// @dev Returns the URI of the release manifest for the given release hash.\n  /// @param releaseId Release hash\n  function getManifestURI(bytes32 releaseId)\n    public\n    view\n    onlyIfReleaseExists(releaseId)\n    returns (string)\n  {\n    return _recordedReleases[releaseId].manifestURI;\n  }\n\n  /*\n   *  Hash Functions\n   */\n  /// @dev Returns version hash for the given semver version.\n  /// @param version Version string\n  function hashVersion(string version)\n    public\n    pure\n    returns (bytes32)\n  {\n    return keccak256(abi.encodePacked(version));\n  }\n\n  /// @dev Returns release hash for the given release\n  /// @param nameHash The name hash of the package name.\n  /// @param versionHash The version hash for the release version.\n  function hashRelease(bytes32 nameHash, bytes32 versionHash)\n    public\n    pure\n    returns (bytes32)\n  {\n    return keccak256(abi.encodePacked(nameHash, versionHash));\n  }\n}\n",
  "sourcePath": "/Users/markomarinovic/Projects/Personal/devcon4/workshop-ether-package-manager/escape-truffle/contracts/ReleaseDB.sol",
  "compiler": {
    "name": "solc",
    "version": "0.4.24+commit.e67f0147.Emscripten.clang"
  },
  "schemaVersion": "2.0.1",
  "updatedAt": "2018-11-01T12:27:35.536Z"
}