{
  "contractName": "ReleaseValidator",
  "abi": [
    {
      "constant": true,
      "inputs": [
        {
          "name": "packageDb",
          "type": "address"
        },
        {
          "name": "releaseDb",
          "type": "address"
        },
        {
          "name": "callerAddress",
          "type": "address"
        },
        {
          "name": "name",
          "type": "string"
        },
        {
          "name": "version",
          "type": "string"
        },
        {
          "name": "manifestURI",
          "type": "string"
        }
      ],
      "name": "validateRelease",
      "outputs": [
        {
          "name": "",
          "type": "bool"
        }
      ],
      "payable": false,
      "stateMutability": "view",
      "type": "function"
    },
    {
      "constant": true,
      "inputs": [
        {
          "name": "packageDb",
          "type": "address"
        },
        {
          "name": "callerAddress",
          "type": "address"
        },
        {
          "name": "name",
          "type": "string"
        }
      ],
      "name": "validateAuthorization",
      "outputs": [
        {
          "name": "",
          "type": "bool"
        }
      ],
      "payable": false,
      "stateMutability": "view",
      "type": "function"
    },
    {
      "constant": true,
      "inputs": [
        {
          "name": "packageDb",
          "type": "address"
        },
        {
          "name": "releaseDb",
          "type": "address"
        },
        {
          "name": "name",
          "type": "string"
        },
        {
          "name": "version",
          "type": "string"
        }
      ],
      "name": "validateIsNewRelease",
      "outputs": [
        {
          "name": "",
          "type": "bool"
        }
      ],
      "payable": false,
      "stateMutability": "view",
      "type": "function"
    },
    {
      "constant": true,
      "inputs": [
        {
          "name": "packageDb",
          "type": "address"
        },
        {
          "name": "name",
          "type": "string"
        }
      ],
      "name": "validatePackageName",
      "outputs": [
        {
          "name": "",
          "type": "bool"
        }
      ],
      "payable": false,
      "stateMutability": "view",
      "type": "function"
    },
    {
      "constant": true,
      "inputs": [
        {
          "name": "value",
          "type": "string"
        }
      ],
      "name": "validateStringIdentifier",
      "outputs": [
        {
          "name": "",
          "type": "bool"
        }
      ],
      "payable": false,
      "stateMutability": "pure",
      "type": "function"
    }
  ],
  "bytecode": "0x608060405234801561001057600080fd5b50610ffb806100206000396000f3006080604052600436106100535763ffffffff60e060020a600035041663028fe498811461005857806310c8e28f1461015a5780632113e91b146102075780632520a1b81461027657806382ee976f146102dd575b600080fd5b34801561006457600080fd5b50604080516020601f60643560048181013592830184900484028501840190955281845261014694600160a060020a03813581169560248035831696604435909316953695608494920191819084018382808284375050604080516020601f89358b018035918201839004830284018301909452808352979a99988101979196509182019450925082915084018382808284375050604080516020601f89358b018035918201839004830284018301909452808352979a9998810197919650918201945092508291508401838280828437509497506103369650505050505050565b604080519115158252519081900360200190f35b34801561016657600080fd5b50604080516020600460443581810135601f8101849004840285018401909552848452610146948235600160a060020a039081169560248035909216953695946064949293019190819084018382808284375050604080516020601f89358b018035918201839004830284018301909452808352979a9998810197919650918201945092508291508401838280828437509497506106f09650505050505050565b34801561021357600080fd5b50604080516020600460443581810135601f8101849004840285018401909552848452610146948235600160a060020a0390811695602480359092169536959460649492930191908190840183828082843750949750610a829650505050505050565b34801561028257600080fd5b5060408051602060046024803582810135601f8101859004850286018501909652858552610146958335600160a060020a0316953695604494919390910191908190840183828082843750949750610cb49650505050505050565b3480156102e957600080fd5b506040805160206004803580820135601f8101849004840285018401909552848452610146943694929360249392840191908190840183828082843750949750610fb29650505050505050565b6000600160a060020a03871615156103be576040805160e560020a62461bcd02815260206004820152602a60248201527f6573636170653a52656c6561736556616c696461746f723a7061636b6167652d60448201527f64622d6e6f742d73657400000000000000000000000000000000000000000000606482015290519081900360840190fd5b600160a060020a0386161515610444576040805160e560020a62461bcd02815260206004820152602a60248201527f6573636170653a52656c6561736556616c696461746f723a72656c656173652d60448201527f64622d6e6f742d73657400000000000000000000000000000000000000000000606482015290519081900360840190fd5b61044f878686610a82565b15156104cb576040805160e560020a62461bcd02815260206004820152602d60248201527f6573636170653a52656c6561736556616c696461746f723a63616c6c65722d6e60448201527f6f742d617574686f72697a656400000000000000000000000000000000000000606482015290519081900360840190fd5b6104d7878786866106f0565b1515610553576040805160e560020a62461bcd02815260206004820152603460248201527f6573636170653a52656c6561736556616c696461746f723a76657273696f6e2d60448201527f70726576696f75736c792d7075626c6973686564000000000000000000000000606482015290519081900360840190fd5b61055d8785610cb4565b15156105d9576040805160e560020a62461bcd02815260206004820152602c60248201527f6573636170653a52656c6561736556616c696461746f723a696e76616c69642d60448201527f7061636b6167652d6e616d650000000000000000000000000000000000000000606482015290519081900360840190fd5b6105e282610fb2565b151561065e576040805160e560020a62461bcd02815260206004820152602c60248201527f6573636170653a52656c6561736556616c696461746f723a696e76616c69642d60448201527f6d616e69666573742d7572690000000000000000000000000000000000000000606482015290519081900360840190fd5b61066783610fb2565b15156106e3576040805160e560020a62461bcd02815260206004820152602f60248201527f6573636170653a52656c6561736556616c696461746f723a696e76616c69642d60448201527f72656c656173652d76657273696f6e0000000000000000000000000000000000606482015290519081900360840190fd5b5060019695505050505050565b60008060008087600160a060020a031663af9a3f9b876040518263ffffffff1660e060020a0281526004018080602001828103825283818151815260200191508051906020019080838360005b8381101561075557818101518382015260200161073d565b50505050905090810190601f1680156107825780820380516001836020036101000a031916815260200191505b509250505060206040518083038186803b15801561079f57600080fd5b505afa1580156107b3573d6000803e3d6000fd5b505050506040513d60208110156107c957600080fd5b50516040517f1a2b3f62000000000000000000000000000000000000000000000000000000008152602060048201818152885160248401528851939650600160a060020a038b1693631a2b3f62938a9383926044909201919085019080838360005b8381101561084357818101518382015260200161082b565b50505050905090810190601f1680156108705780820380516001836020036101000a031916815260200191505b509250505060206040518083038186803b15801561088d57600080fd5b505afa1580156108a1573d6000803e3d6000fd5b505050506040513d60208110156108b757600080fd5b5051604080517f93d7910500000000000000000000000000000000000000000000000000000000815260048101869052602481018390529051919350600160a060020a038916916393d7910591604480820192602092909190829003018186803b15801561092457600080fd5b505afa158015610938573d6000803e3d6000fd5b505050506040513d602081101561094e57600080fd5b5051604080517f3f415772000000000000000000000000000000000000000000000000000000008152600481018390529051919250600160a060020a03891691633f41577291602480820192602092909190829003018186803b1580156109b457600080fd5b505afa1580156109c8573d6000803e3d6000fd5b505050506040513d60208110156109de57600080fd5b5051158015610a765750604080517fceef4a12000000000000000000000000000000000000000000000000000000008152600481018390529051600160a060020a0389169163ceef4a12916024808301926020929190829003018186803b158015610a4857600080fd5b505afa158015610a5c573d6000803e3d6000fd5b505050506040513d6020811015610a7257600080fd5b5051155b98975050505050505050565b600080600085600160a060020a031663af9a3f9b856040518263ffffffff1660e060020a0281526004018080602001828103825283818151815260200191508051906020019080838360005b83811015610ae6578181015183820152602001610ace565b50505050905090810190601f168015610b135780820380516001836020036101000a031916815260200191505b509250505060206040518083038186803b158015610b3057600080fd5b505afa158015610b44573d6000803e3d6000fd5b505050506040513d6020811015610b5a57600080fd5b5051604080517fa9b35240000000000000000000000000000000000000000000000000000000008152600481018390529051919350600160a060020a0388169163a9b3524091602480820192602092909190829003018186803b158015610bc057600080fd5b505afa158015610bd4573d6000803e3d6000fd5b505050506040513d6020811015610bea57600080fd5b50511515610bfb5760019250610cab565b604080517fb4d6d4c7000000000000000000000000000000000000000000000000000000008152600481018490529051600160a060020a0388169163b4d6d4c7916024808301926060929190829003018186803b158015610c5b57600080fd5b505afa158015610c6f573d6000803e3d6000fd5b505050506040513d6060811015610c8557600080fd5b50519050600160a060020a038082169086161415610ca65760019250610cab565b600092505b50509392505050565b600080600084600160a060020a031663af9a3f9b856040518263ffffffff1660e060020a0281526004018080602001828103825283818151815260200191508051906020019080838360005b83811015610d18578181015183820152602001610d00565b50505050905090810190601f168015610d455780820380516001836020036101000a031916815260200191505b509250505060206040518083038186803b158015610d6257600080fd5b505afa158015610d76573d6000803e3d6000fd5b505050506040513d6020811015610d8c57600080fd5b5051604080517fa9b35240000000000000000000000000000000000000000000000000000000008152600481018390529051919350600160a060020a0387169163a9b3524091602480820192602092909190829003018186803b158015610df257600080fd5b505afa158015610e06573d6000803e3d6000fd5b505050506040513d6020811015610e1c57600080fd5b505115610e2c5760019250610faa565b600284511080610e3d575060ff8451115b15610e4b5760009250610faa565b5060005b8351811015610fa55783517f2d0000000000000000000000000000000000000000000000000000000000000090859083908110610e8857fe5b90602001015160f860020a900460f860020a027effffffffffffffffffffffffffffffffffffffffffffffffffffffffffffff1916148015610eca5750600081115b15610ed457610f9d565b600081118015610f0457508351603090859083908110610ef057fe5b016020015160f860020a9081900481020410155b8015610f3057508351603990859083908110610f1c57fe5b016020015160f860020a9081900481020411155b15610f3a57610f9d565b8351606190859083908110610f4b57fe5b016020015160f860020a9081900481020410801590610f8a57508351607a90859083908110610f7657fe5b016020015160f860020a9081900481020411155b15610f9457610f9d565b60009250610faa565b600101610e4f565b600192505b505092915050565b6000815160001415610fc657506000610fca565b5060015b9190505600a165627a7a72305820efdf965d95ea8df7d51a570748f6269f9e4488d6f830cf8b16395c950ceb89d30029",
  "source": "pragma solidity ^0.4.24;\npragma experimental \"v0.5.0\";\n\nimport {PackageDB} from \"./PackageDB.sol\";\nimport {ReleaseDB} from \"./ReleaseDB.sol\";\n\n/// @title Database contract for a package index.\n/// @author Piper Merriam <pipermerriam@gmail.com>\ncontract ReleaseValidator {\n  /// @dev Runs validation on all of the data needed for releasing a package.  Returns success.\n  /// @param packageDb The address of the PackageDB\n  /// @param releaseDb The address of the ReleaseDB\n  /// @param callerAddress The address which is attempting to create the release.\n  /// @param name The name of the package.\n  /// @param version The version string of the package (ex: `1.0.0`)\n  /// @param manifestURI The URI of the release manifest.\n  function validateRelease(\n    PackageDB packageDb,\n    ReleaseDB releaseDb,\n    address callerAddress,\n    string name,\n    string version,\n    string manifestURI\n  )\n    public\n    view\n    returns (bool)\n  {\n    if (address(packageDb) == 0x0){\n      // packageDb address is null\n      revert(\"escape:ReleaseValidator:package-db-not-set\");\n    } else if (address(releaseDb) == 0x0){\n      // releaseDb address is null\n      revert(\"escape:ReleaseValidator:release-db-not-set\");\n    } else if (!validateAuthorization(packageDb, callerAddress, name)) {\n      // package exists and msg.sender is not the owner not the package owner.\n      revert(\"escape:ReleaseValidator:caller-not-authorized\");\n    } else if (!validateIsNewRelease(packageDb, releaseDb, name, version)) {\n      // this version has already been released.\n      revert(\"escape:ReleaseValidator:version-previously-published\");\n    } else if (!validatePackageName(packageDb, name)) {\n      // invalid package name.\n      revert(\"escape:ReleaseValidator:invalid-package-name\");\n    } else if (!validateStringIdentifier(manifestURI)) {\n      // disallow empty release manifest URI\n      revert(\"escape:ReleaseValidator:invalid-manifest-uri\");\n    } else if (!validateStringIdentifier(version)) {\n      // disallow version 0.0.0\n      revert(\"escape:ReleaseValidator:invalid-release-version\");\n    }\n    return true;\n  }\n\n  /// @dev Validate whether the callerAddress is authorized to make this release.\n  /// @param packageDb The address of the PackageDB\n  /// @param callerAddress The address which is attempting to create the release.\n  /// @param name The name of the package.\n  function validateAuthorization(\n    PackageDB packageDb,\n    address callerAddress,\n    string name\n  )\n    public\n    view\n    returns (bool)\n  {\n    bytes32 nameHash = packageDb.hashName(name);\n    if (!packageDb.packageExists(nameHash)) {\n      return true;\n    }\n    address packageOwner;\n\n    (packageOwner,,) = packageDb.getPackageData(nameHash);\n\n    if (packageOwner == callerAddress) {\n      return true;\n    }\n    return false;\n  }\n\n  /// @dev Validate that the version being released has not already been released.\n  /// @param packageDb The address of the PackageDB\n  /// @param releaseDb The address of the ReleaseDB\n  /// @param name The name of the package.\n  /// @param version The version string for the release\n  function validateIsNewRelease(\n    PackageDB packageDb,\n    ReleaseDB releaseDb,\n    string name,\n    string version\n  )\n    public\n    view\n    returns (bool)\n  {\n    bytes32 nameHash = packageDb.hashName(name);\n    bytes32 versionHash = releaseDb.hashVersion(version);\n    bytes32 releaseHash = releaseDb.hashRelease(nameHash, versionHash);\n    return !releaseDb.releaseExists(releaseHash) && !releaseDb.releaseExisted(releaseHash);\n  }\n\n  uint constant DIGIT_0 = uint(bytes1(\"0\"));\n  uint constant DIGIT_9 = uint(bytes1(\"9\"));\n  uint constant LETTER_a = uint(bytes1(\"a\"));\n  uint constant LETTER_z = uint(bytes1(\"z\"));\n  bytes1 constant DASH = bytes1(\"-\");\n\n  /// @dev Returns boolean whether the provided package name is valid.\n  /// @param packageDb The address of the PackageDB\n  /// @param name The name of the package.\n  function validatePackageName(PackageDB packageDb, string name)\n    public\n    view\n    returns (bool)\n  {\n    bytes32 nameHash = packageDb.hashName(name);\n\n    if (packageDb.packageExists(nameHash)) {\n      // existing names are always valid.\n      return true;\n    }\n\n    if (bytes(name).length < 2 || bytes(name).length > 255) {\n      return false;\n    }\n    for (uint i = 0; i < bytes(name).length; i++) {\n      if (bytes(name)[i] == DASH && i > 0) {\n        continue;\n      } else if (i > 0 && uint(bytes(name)[i]) >= DIGIT_0 && uint(bytes(name)[i]) <= DIGIT_9) {\n        continue;\n      } else if (uint(bytes(name)[i]) >= LETTER_a && uint(bytes(name)[i]) <= LETTER_z) {\n        continue;\n      } else {\n        return false;\n      }\n    }\n    return true;\n  }\n\n  /// @dev Returns boolean whether the input string has a length\n  /// @param value The string to validate.\n  function validateStringIdentifier(string value)\n    public\n    pure\n    returns (bool)\n  {\n    if (bytes(value).length == 0) {\n      return false;\n    }\n    return true;\n  }\n}\n",
  "sourcePath": "/Users/markomarinovic/Projects/Personal/devcon4/workshop-ether-package-manager/escape-truffle/contracts/ReleaseValidator.sol",
  "compiler": {
    "name": "solc",
    "version": "0.4.24+commit.e67f0147.Emscripten.clang"
  },
  "schemaVersion": "2.0.1",
  "updatedAt": "2018-11-01T12:27:35.542Z"
}